:020000040800F2
:1000000000000220151F00088D1E00088F1E00082A
:10001000911E0008931E0008951E000800000000B5
:10002000000000000000000000000000F13D00089A
:10003000971E000800000000913E0008F53E0008F1
:10004000651F0008651F0008651F0008651F000880
:10005000651F0008651F0008651F0008651F000870
:10006000651F0008651F0008651F0008651F000860
:10007000651F0008651F0008651F0008651F000850
:10008000651F0008651F0008651F000800000000CC
:10009000000000000000000000000000651F0008D4
:1000A000651F0008991E0008651F0008651F0008ED
:1000B000651F0008651F0008651F0008651F000810
:1000C000651F0008651F0008651F0008651F000800
:1000D000651F0008651F0008651F0008000000007C
:1000E000651F0008651F0008651F0008000000006C
:1000F000000000000000000000000000651F000874
:1001000000000000651F0008651F0008651F00084B
:1001100000000000000000000000000000000000DF
:10012000651F0008651F0008651F0008651F00089F
:10013000651F000800000000000000000000000033
:10014000000000000000000000000000651F000823
:10015000651F0008651F0008651F0008651F00086F
:10016000651F0008651F0008000000000000000077
:10017000000000000000000000000000000000007F
:1001800000000000651F00080000000000000000E3
:08019000651F0008651F00084F
:1001C00010B5054C237833B9044B13B10448AFF391
:1001D00000800123237010BD300A002000000000C1
:1001E000DC98000808B5034B1BB103490348AFF383
:1001F000008008BD00000000340A0020DC980008E0
:1002000081F0004102E000BF83F0004330B54FEAC7
:1002100041044FEA430594EA050F08BF90EA020F34
:100220001FBF54EA000C55EA020C7FEA645C7FEAC7
:10023000655C00F0E2804FEA5454D4EB5555B8BFEA
:100240006D420CDD2C4480EA020281EA030382EA5B
:10025000000083EA010180EA020281EA0303362DED
:1002600088BF30BD11F0004F4FEA01314FF4801CC0
:100270004CEA113102D0404261EB410113F0004FD2
:100280004FEA03334CEA133302D0524263EB430389
:1002900094EA050F00F0A780A4F10104D5F1200E27
:1002A0000DDB02FA0EFC22FA05F2801841F1000182
:1002B00003FA0EF2801843FA05F359410EE0A5F156
:1002C00020050EF1200E012A03FA0EFC28BF4CF087
:1002D000020C43FA05F3C01851EBE37101F000453D
:1002E00007D54FF0000EDCF1000C7EEB00006EEB4A
:1002F0000101B1F5801F1BD3B1F5001F0CD34908D4
:100300005FEA30004FEA3C0C04F101044FEA44522A
:1003100012F5800F80F09A80BCF1004F08BF5FEAB1
:10032000500C50F1000041EB045141EA050130BD91
:100330005FEA4C0C404141EB010111F4801FA4F134
:100340000104E9D191F0000F04BF01460020B1FA89
:1003500081F308BF2033A3F10B03B3F120020CDAC1
:100360000C3208DD02F1140CC2F10C0201FA0CF09F
:1003700021FA02F10CE002F11402D8BFC2F1200C04
:1003800001FA02F120FA0CFCDCBF41EA0C019040BA
:10039000E41AA2BF01EB0451294330BD6FEA040403
:1003A0001F3C1CDA0C340EDC04F11404C4F12002EE
:1003B00020FA04F001FA02F340EA030021FA04F300
:1003C00045EA030130BDC4F10C04C4F1200220FA57
:1003D00002F001FA04F340EA0300294630BD21FA95
:1003E00004F0294630BD94F0000F83F4801306BF5B
:1003F00081F480110134013D4EE77FEA645C18BF4F
:100400007FEA655C29D094EA050F08BF90EA020FE5
:1004100005D054EA000C04BF1946104630BD91EADD
:10042000030F1EBF0021002030BD5FEA545C05D1E0
:100430004000494128BF41F0004130BD14F580041F
:100440003CBF01F5801130BD01F0004545F0FE4193
:1004500041F470014FF0000030BD7FEA645C1ABFC8
:10046000194610467FEA655C1CBF0B46024650EAFF
:10047000013406BF52EA033591EA030F41F400212B
:1004800030BD00BF90F0000F04BF0021704730B5B1
:100490004FF4806404F132044FF000054FF0000186
:1004A00050E700BF90F0000F04BF0021704730B547
:1004B0004FF4806404F1320410F0004548BF40421C
:1004C0004FF000013EE700BF42004FEAE2014FEA71
:1004D00031014FEA02701FBF12F07F4393F07F4F4C
:1004E00081F06051704732F07F4208BF704793F04F
:1004F0007F4F04BF41F40021704730B54FF4607462
:1005000001F0004521F000411CE700BF50EA010264
:1005100008BF704730B54FF000050AE050EA01020D
:1005200008BF704730B511F0004502D5404261EB7D
:1005300041014FF4806404F132045FEA915C3FF4BE
:10054000D8AE4FF003025FEADC0C18BF03325FEA5B
:10055000DC0C18BF033202EBDC02C2F1200300FA0C
:1005600003FC20FA02F001FA03FE40EA0E0021FA31
:1005700002F11444BDE600BF70B54FF0FF0C4CF41F
:10058000E06C1CEA11541DBF1CEA135594EA0C0FD1
:1005900095EA0C0F00F0DEF82C4481EA030621EA0C
:1005A0004C5123EA4C5350EA013518BF52EA033547
:1005B00041F4801143F4801338D0A0FB02CE4FF0F9
:1005C0000005E1FB02E506F00042E0FB03E54FF029
:1005D0000006E1FB03569CF0000F18BF4EF0010E21
:1005E000A4F1FF04B6F5007F64F5407404D25FEA1D
:1005F0004E0E6D4146EB060642EAC62141EA5551D0
:100600004FEAC52040EA5E504FEACE2EB4F1FD0C11
:1006100088BFBCF5E06F1ED8BEF1004F08BF5FEA8F
:10062000500E50F1000041EB045170BD06F0004641
:1006300046EA010140EA020081EA0301B4EB5C04EE
:10064000C2BFD4EB0C0541EA045170BD41F48011E6
:100650004FF0000E013C00F3AB8014F1360FDEBF0B
:10066000002001F0004170BDC4F10004203C35DAE7
:100670000C341BDC04F11404C4F1200500FA05F36A
:1006800020FA04F001FA05F240EA020001F000420B
:1006900021F0004110EBD37021FA04F642EB060181
:1006A0005EEA430E08BF20EAD37070BDC4F10C04AB
:1006B000C4F1200500FA04F320FA05F001FA04F26F
:1006C00040EA020001F0004110EBD37041F100015B
:1006D0005EEA430E08BF20EAD37070BDC4F1200566
:1006E00000FA05F24EEA020E20FA04F301FA05F2CE
:1006F00043EA020321FA04F001F0004121FA04F276
:1007000020EA020000EBD3705EEA430E08BF20EA45
:10071000D37070BD94F0000F0FD101F0004640007F
:1007200041EB010111F4801F08BF013CF7D041EA01
:10073000060195F0000F18BF704703F00046520005
:1007400043EB030313F4801F08BF013DF7D043EAD6
:100750000603704794EA0C0F0CEA135518BF95EA8C
:100760000C0F0CD050EA410618BF52EA4306D1D113
:1007700081EA030101F000414FF0000070BD50EA32
:10078000410606BF1046194652EA430619D094EABC
:100790000C0F02D150EA013613D195EA0C0F05D1A6
:1007A00052EA03361CBF104619460AD181EA0301FA
:1007B00001F0004141F0FE4141F470014FF00000B2
:1007C00070BD41F0FE4141F4780170BD70B54FF04D
:1007D000FF0C4CF4E06C1CEA11541DBF1CEA1355CD
:1007E00094EA0C0F95EA0C0F00F0A7F8A4EB0504AF
:1007F00081EA030E52EA03354FEA013100F08880A6
:100800004FEA03334FF0805545EA131343EA12636E
:100810004FEA022245EA111545EA10654FEA002623
:100820000EF000419D4208BF964244F1FD0404F5DC
:10083000407402D25B084FEA3202B61A65EB030538
:100840005B084FEA32024FF480104FF4002CB6EBF5
:10085000020E75EB030E22BFB61A754640EA0C0075
:100860005B084FEA3202B6EB020E75EB030E22BFB5
:10087000B61A754640EA5C005B084FEA3202B6EBF6
:10088000020E75EB030E22BFB61A754640EA9C00B5
:100890005B084FEA3202B6EB020E75EB030E22BF85
:1008A000B61A754640EADC0055EA060E18D04FEA43
:1008B000051545EA16754FEA06164FEAC30343EAE3
:1008C00052734FEAC2025FEA1C1CC0D111F4801FB0
:1008D0000BD141EA00014FF000004FF0004CB6E7A9
:1008E00011F4801F04BF01430020B4F1FD0C88BF48
:1008F000BCF5E06F3FF6AFAEB5EB030C04BFB6EB53
:10090000020C5FEA500C50F1000041EB045170BD45
:100910000EF0004E4EEA113114EB5C04C2BFD4EB72
:100920000C0541EA045170BD41F480114FF0000EF6
:10093000013C90E645EA060E8DE60CEA135594EA72
:100940000C0F08BF95EA0C0F3FF43BAF94EA0C0F75
:100950000AD150EA01347FF434AF95EA0C0F7FF4EA
:1009600025AF104619462CE795EA0C0F06D152EA3E
:1009700003353FF4FDAE1046194622E750EA410622
:1009800018BF52EA43067FF4C5AE50EA41047FF433
:100990000DAF52EA43057FF4EBAE12E74FEA410296
:1009A000B2F1E04324BFB3F5001CDCF1FE5C0DD9CD
:1009B00001F0004C4FEAC0024CEA5070B2F1004F17
:1009C00040EB830008BF20F00100704711F0804F1A
:1009D00021D113F13872BCBF01F00040704741F4DF
:1009E00080114FEA5252C2F11802C2F1200C10FAE3
:1009F0000CF320FA02F018BF40F001004FEAC123C7
:100A00004FEAD32303FA0CFC40EA0C0023FA02F36A
:100A10004FEA4303CCE77FEA625307D150EA013340
:100A20001EBF4FF0FE4040F44000704701F0004010
:100A300040F0FE4040F40000704700BF53B94AB98F
:100A4000002908BF00281CBF4FF0FF314FF0FF30D6
:100A500000F074B9ADF1080C6DE904CE00F006F8B1
:100A6000DDF804E0DDE9022304B070472DE9F0472A
:100A7000089E04468846002B40F085808A42154631
:100A800048D9B2FA82F24AB1C2F1200701FA02F360
:100A900020FA07F7954047EA030894404FEA154EBD
:100AA000230CB8FBFEF71FFA85FC0EFB178843EA00
:100AB000084307FB0CF1994209D9EB1807F1FF3005
:100AC00080F0E380994240F2E080023F2B445B1AC1
:100AD000A4B2B3FBFEF00EFB103344EA034400FB68
:100AE0000CFCA44509D92C1900F1FF3380F0CB8010
:100AF000A44540F2C88002382C4440EA0740A4EBE9
:100B00000C0400271EB1D4400023C6E90043394637
:100B1000BDE8F087002A53D0B2FA82F2002A40F0F2
:100B2000B680491B4FEA154E1FFA85F80127B1FB25
:100B3000FEFC230C0EFB1C1143EA014308FB0CF1E5
:100B4000994207D9EB180CF1FF3002D2994200F21A
:100B5000EC808446591AA3B2B1FBFEF00EFB1014D0
:100B600043EA044408FB00F8A04507D92C1900F11A
:100B7000FF3302D2A04500F2DC801846A4EB080443
:100B800040EA0C40BEE78B4208D9002E78D00027FF
:100B9000C6E9000138463946BDE8F087B3FA83F765
:100BA0007FB98B4202D3824200F2BD80841A61EB8E
:100BB000030301209846002EA9D0C6E90048A6E705
:100BC000FFDEC7F12005BB4022FA05FC4CEA030C0E
:100BD00001FA07F420FA05F821FA05F34FEA1C4E52
:100BE00048EA0404B3FBFEF9210C0EFB19331FFA8B
:100BF0008CF841EA034309FB08FA9A4502FA07F226
:100C000000FA07F10BD91CEB030309F1FF3080F068
:100C100088809A4540F28580A9F102096344A3EBDC
:100C20000A03A4B2B3FBFEF00EFB103344EA034404
:100C300000FB08F8A04508D91CEB040400F1FF33C1
:100C40006BD2A04569D90238644440EA0940A4EB5C
:100C50000804A0FB02894C45C6464B4654D351D0EC
:100C6000002E69D0B1EB0E0264EB030404FA05F523
:100C700022FA07F3FC401D43C6E90054002746E76B
:100C80003746304643E7184637E707461FE7C2F1C5
:100C9000200320FA03F7954001FA02F021FA03F34A
:100CA0004FEA154E3843010CB3FBFEF71FFA85F8E7
:100CB0000EFB173341EA034107FB08F38B4204FAAA
:100CC00002F407D9691807F1FF3C28D28B4226D9D4
:100CD000023F2944CB1A81B2B3FBFEF00EFB103366
:100CE00041EA034100FB08F38B4207D9691800F180
:100CF000FF3C10D28B420ED902382944C91A40EA6F
:100D0000074714E74145ABD2B8EB020E69EB0C0282
:100D100001381346A4E76046F0E7184695E76746B2
:100D2000D8E781467BE7384645E7ACF1020C2B4417
:100D300010E702382C4421E73746E8E6704700BF49
:100D4000844641EA000313F003036DD1403A41D3D6
:100D500051F8043B40F8043B51F8043B40F8043B95
:100D600051F8043B40F8043B51F8043B40F8043B85
:100D700051F8043B40F8043B51F8043B40F8043B75
:100D800051F8043B40F8043B51F8043B40F8043B65
:100D900051F8043B40F8043B51F8043B40F8043B55
:100DA00051F8043B40F8043B51F8043B40F8043B45
:100DB00051F8043B40F8043B51F8043B40F8043B35
:100DC00051F8043B40F8043B51F8043B40F8043B25
:100DD000403ABDD2303211D351F8043B40F8043BC5
:100DE00051F8043B40F8043B51F8043B40F8043B05
:100DF00051F8043B40F8043B103AEDD20C3205D3D5
:100E000051F8043B40F8043B043AF9D2043208D0CC
:100E1000D2071CBF11F8013B00F8013B01D30B883E
:100E200003806046704700BF082A13D38B078DD01C
:100E300010F003038AD0C3F10403D21ADB071CBFEE
:100E400011F8013B00F8013B80D331F8023B20F858
:100E5000023B7BE7043AD9D3013A11F8013B00F891
:100E6000013BF9D20B7803704B7843708B78837019
:100E70006046704700000000000000000000000015
:100E800090F800F06DE9024520F007016FF0000CCA
:100E900010F0070491F820F040F049804FF0000472
:100EA0006FF00700D1E9002391F840F000F108004D
:100EB00082FA4CF2A4FA8CF283FA4CF3A2FA8CF385
:100EC0004BBBD1E9022382FA4CF200F10800A4FAEC
:100ED0008CF283FA4CF3A2FA8CF3E3B9D1E9042340
:100EE00082FA4CF200F10800A4FA8CF283FA4CF377
:100EF000A2FA8CF37BB9D1E9062301F1200182FA31
:100F00004CF200F10800A4FA8CF283FA4CF3A2FA36
:100F10008CF3002BC6D0002A04BF04301A4612BA44
:100F2000B2FA82F2FDE8024500EBD2007047D1E947
:100F3000002304F00305C4F100004FEAC50514F0D6
:100F4000040F91F840F00CFA05F562EA05021CBFA7
:100F500063EA050362464FF00004A9E700000000C1
:100F600001F0FF01102A2BDB10F0070F08D010F85A
:100F7000013B013A8B422DD010F0070F42B3F6D15E
:100F8000F0B441EA012141EA014122F007047FF077
:100F900000070023F0E80256083C85EA010586EACE
:100FA000010685FA47F5A3FA87F586FA47F6A5FA0A
:100FB00087F68EB9EED1F0BC01F0FF0102F0070216
:100FC00032B110F8013B013A83EA010313B1F8D1C1
:100FD0000020704701387047002D06BF35460338A2
:100FE000073815F0010F07D1013015F4807F02BFDB
:100FF000013015F4C03F0130F0BC0138704700BF2C
:101000004FF0FF3C06E000BF4FF0010C02E000BFD4
:101010004FF0010C4DF804CD4FEA410C7FEA6C5CB7
:101020004FEA430C18BF7FEA6C5C1BD001B050EA5A
:10103000410C0CBF52EA430C91EA030F02BF90EA45
:10104000020F0020704710F1000F91EA030F58BF04
:10105000994208BF90422CBFD8176FEAE37040F066
:10106000010070474FEA410C7FEA6C5C02D150EA04
:10107000013C07D14FEA430C7FEA6C5CD6D152EABF
:10108000033CD3D05DF8040B704700BF8446104684
:1010900062468C461946634600E000BF01B5FFF783
:1010A000B7FF002848BF10F1000F01BD4DF808ED53
:1010B000FFF7F4FF0CBF012000205DF808FB00BF24
:1010C0004DF808EDFFF7EAFF34BF012000205DF87E
:1010D00008FB00BF4DF808EDFFF7E0FF94BF0120CB
:1010E00000205DF808FB00BF4DF808EDFFF7CEFFCC
:1010F00094BF012000205DF808FB00BF4DF808ED0B
:10110000FFF7C4FF34BF012000205DF808FB00BFDB
:101110004FEA410C7FEA6C5C02D150EA013C0AD1F3
:101120004FEA430C7FEA6C5C02D152EA033C02D1E5
:101130004FF0000070474FF0010070474FEA410246
:1011400012F5001215D211D56FF47873B3EB625219
:1011500012D94FEAC12343F0004343EA505311F040
:10116000004F23FA02F018BF404270474FF00000D2
:10117000704750EA013005D111F0004008BF6FF010
:10118000004070474FF00000704700BF00B583B0CB
:1011900000210191094B1A6B42F480021A631B6B08
:1011A00003F480030193019B0A46382001F09EF965
:1011B000382001F0CFF903B05DF804FB003802409D
:1011C00008B50948094B0360094B4360002383605D
:1011D000C3604FF48042026143618361C361036273
:1011E00001F044FC08BD00BFA80A002000540040E4
:1011F000A086010070B584B0002300930193029390
:101200000393134C134A22606360A3600125256198
:10121000257684F82030E3620F4AA262E36002265A
:10122000E66184F830506561204600F063FF009568
:101230000195072302936946204601F073F8009652
:1012400001966946204601F06DF804B070BD00BFFC
:10125000600A0020002001400100000FF0B587B0B7
:1012600002F072F9214BA3FB0030800C204F386054
:10127000204E4FF080433360002402940394049482
:101280000594009401943B6873604FF47A73F360A3
:10129000B460304602F0FEFA4FF48053029302A984
:1012A000304602F01DFB009401946946304602F07E
:1012B00085FB114D114B2B603B68013B6B604FF67A
:1012C000FF73EB60AC60284602F0E4FA02A92846FE
:1012D00002F006FB6946284602F070FB304602F039
:1012E000B8F9284602F0A3F907B0F0BD83DE1B432E
:1012F0005C0A0020FC0A00203C0B0020004001405A
:1013000008B50268034B9A4200D008BD00F046FEC3
:10131000FBE700BF00440140002809DD054B1A68C7
:10132000002353620138536AB3F57A7FFBD3F3E7A6
:10133000704700BF3C0B002082B0ADF80600064BA2
:10134000196800234B624A6ABDF806309BB29A4284
:10135000F9D302B0704700BF3C0B002030B595B008
:101360003022002108A804F091FA00240394049488
:1013700005940694079401941B4B1A6C42F080521A
:101380001A641B6C03F080530193019B0294174B6A
:101390001A6842F440421A601B6803F44043029307
:1013A000029B012308934FF48033099302250E9585
:1013B0004FF480030F930423109364231193129529
:1013C0000823139308A801F0AFFD0F23039304959E
:1013D00005944FF4805306930793032103A802F06A
:1013E00003F815B030BD00BF003802400070004067
:1013F00010B500F0B9FDFFF7B1FF00F029FAFFF7D3
:101400002DFFFFF7C3FEFFF7DBFEFFF727FFFFF718
:10141000F1FE094C204600F079F800F043F920462F
:1014200000F0E2F9112000F07DF90222034904489E
:1014300000F08CFE10BD00BFA80A0020540A002056
:10144000600A0020014B93ED000A70474C0A00200F
:10145000014B93ED010A70474C0A002008B5024881
:1014600000F084FA08BD00BF4C0A002000B585B02A
:101470000301DBB200F0F00040F00C028DF80C200C
:1014800040F008008DF80D0043F00C028DF80E209E
:1014900043F008038DF80F30C8230093042303AAF8
:1014A000044909780448006801F0BCFB05B05DF808
:1014B00004FB00BF7C0B0020800B002000B585B032
:1014C0000301DBB200F0F00040F00D028DF80C20BB
:1014D00040F009008DF80D0043F00D028DF80E204C
:1014E00043F009038DF80F30C8230093042303AAA7
:1014F000044909780448006801F094FB05B05DF8E0
:1015000004FB00BF7C0B0020800B002010B50446BC
:101510003220FFF701FF2B4B1C604FF4FA730522BA
:101520004E21204601F036FCE8BB274B4E221A70B4
:101530002D20FFF7F1FE3020FFF798FF0520FFF781
:10154000EBFE3020FFF792FF0120FFF7E5FE302091
:10155000FFF78CFF0820FFF7DFFE2020FFF786FF54
:101560000820FFF7D9FE2820FFF780FF0120FFF7B2
:10157000D3FE0820FFF77AFF0120FFF7CDFE012000
:10158000FFF774FF0320FFF7C7FE0620FFF76EFF8B
:101590000120FFF7C1FE0C20FFF768FF0320FFF7D3
:1015A000BBFE012010BD4FF4FA7305227E210548D1
:1015B000006801F0EFFB18B9034B7E221A70B7E701
:1015C0000020EFE7800B00207C0B002008B501F025
:1015D0000F0120B941F08000FFF748FF08BD41F03E
:1015E000C000FFF743FFF9E708B50120FFF73EFF12
:1015F0000320FFF791FE08BD0FB410B586B008AA0E
:1016000052F8041B009201A804F0A4F9002401A8D8
:10161000FFF736FC84420AD20F2C08D806AB2344CD
:1016200013F8140CFFF74AFF0134E4B2EFE706B0F9
:10163000BDE8104004B0704738B50D4600F0070013
:10164000C00040F04000FFF711FF002403E0285DD8
:10165000FFF734FF0134072CF9DD38BD10B5002445
:1016600006E0054901EBC401E0B2FFF7E5FF0134F4
:10167000072CF6DD10BD00BF0000002010B50024CF
:10168000052C07DC044901EBC401E0B2FFF7D4FFED
:101690000134F5E710BD00BF4000002008B5FFF79A
:1016A0000DFF08BD38B5FFF79FFFFFF7E7FF0021EB
:1016B0000846FFF78BFF0E48FFF79EFF002500E06E
:1016C00001350F2D0EDC0024052CF9DCE9B20120D8
:1016D000FFF77CFFE0B2FFF7E1FF0A20FFF71CFEF7
:1016E0000134F1E7FFF780FFFFF7B8FF38BD00BF17
:1016F000F898000800B585B007238DF80F300A234D
:10170000009301230DF10F0246210548006801F006
:1017100089FA034600B10123184605B05DF804FBC1
:10172000880B002000B585B08DF80F00030901D1AA
:10173000430918D010F00C0F04D00123184605B04F
:101740005DF804FB094B18700A23009301230DF187
:101750000F0246210648006801F064FA034600289B
:10176000ECD00123EAE70123E8E700BF840B002067
:10177000880B0020A0F11F03DBB2DF2B02D901236D
:101780001846704700B585B0154B1870430943F0F3
:1017900040038DF80C3000F01F0040F060008DF821
:1017A0000D000A230093012303AA46210D48006877
:1017B00001F038FA20B10123184605B05DF804FBAA
:1017C0000A23009301230DF10D024621054800680C
:1017D00001F028FA03460028EED00123ECE700BF11
:1017E000850B0020880B002008B5084B1860FFF718
:1017F00081FF10B10123184608BD4520FFF7BAFF4D
:1018000003460028F7D00123F5E700BF880B00202E
:1018100000B587B000230393059301910123029340
:101820000323049301A900F0EFFE07B05DF804FB69
:1018300000B587B000230293059301910123039320
:101840000323049301A900F0DFFE07B05DF804FB59
:1018500000B583B000230193084B1A6B42F00102DC
:101860001A631B6B03F001030193019B01210448E0
:10187000FFF7DEFF03B05DF804FB00BF0038024055
:101880000000024010B50B4C01212046FFF7C0FFBD
:1018900000220121204600F090FF4FF49660FFF7F0
:1018A0004BFD01212046FFF7C3FF1E20FFF744FD3B
:1018B00010BD00BF0000024038B501210E4800F005
:1018C00075FF58B1002540F6FF7401210A4800F069
:1018D0006DFF78B174B1013CA4B2F6E75020FFF778
:1018E0002BFD0121044800F061FF08B10125EAE762
:1018F000FF25E8E7284638BD0000024070B5002605
:1019000040F6FF7435462AE0013CA4B20121164896
:1019100000F04CFF08B9002CF6D12320FFF70CFD96
:101920000121114800F042FF80B9C5F107020123EF
:10193000934026EA030640F6FF7401210A4800F0AE
:1019400035FF50B14CB1013CA4B2F6E7C5F1070236
:10195000012393403343DEB2EDE70135EDB2072DAD
:10196000D4D9304670BD00BF000002402DE9F041DF
:101970000546FFF787FFFFF79FFF214B1870FFF722
:10198000BDFFDFF8948088F80000FFF7B7FF1D4F18
:101990003870FFF7B3FF1C4E3070FFF7AFFF1B4CE2
:1019A0002070FFF7ABFF80B2194B188098F8003019
:1019B0003A781344317851FA83F3227852FA83F358
:1019C000DBB2984201D0BDE8F08142EA0120FEF787
:1019D00069FD00220F4BFEF7F9FEFEF7DFFF2860DE
:1019E00098F800003B7843EA0020FEF75BFD0022F8
:1019F000084BFEF7EBFEFEF7D1FF6860E3E700BFA0
:101A00008C0B00208E0B0020920B0020930B0020EB
:101A1000900B0020000024408D0B002008B5012011
:101A200002F0B8F8FBE708B5012002F0B3F8FBE7D5
:101A300000B583B0124B0193009302F0EBF9FFF76E
:101A40000DFD02F009FAFFF7FDFC8DED010AFFF72D
:101A5000FFFC8DED000A00234FF4FA7201A909483A
:101A6000006802F0ADFD00234FF4FA7269460648A3
:101A7000006802F0A5FD4FF47A7003F017FBDCE775
:101A800000002041A00B0020940B002008B5FFF7B8
:101A9000AFFC01F0D1FF1A4A0121192002F098F899
:101AA000184B186000220421C82002F062FD164B7A
:101AB000186000220421C82002F05BFD134B18605F
:101AC000134A0021134801F0F9FF134B1860134A21
:101AD0000021134801F0F2FF124B1860124A002156
:101AE000124801F0EBFF124B1860124A0021124815
:101AF00001F0E4FF114B186001F0BCFFFEE700BFEE
:101B000020990008980B0020A00B0020940B0020C7
:101B10005C990008CD1B0008A40B002080990008E8
:101B20001D1A0008A80B002038990008311A000877
:101B30009C0B0020A4990008271A0008AC0B002079
:101B400010B582B010EE104A00210846FFF73EFDA6
:101B50000120FFF7A3FD2046FEF7B6FCDF2300932C
:101B600002460B460248FFF747FD02B010BD00BF1A
:101B70001499000800B52DED028B83B0B0EE408AB9
:101B8000DFED0F7AB4EEE70AF1EE10FA01DB9FED1C
:101B90000D8A07210020FFF719FD0220FFF77EFDC7
:101BA00018EE100AFEF790FC2523009302460B4620
:101BB0000548FFF721FD03B0BDEC028B5DF804FB87
:101BC0000000C8420000C6420899000800B583B072
:101BD0000023019300930FE04FF4FA7201A9124B16
:101BE000186802F015FE9DED010AFFF7A9FF09E054
:101BF0004FF47A7003F05AFA0B4B186802F0B6FEF5
:101C00000028E9D1094B186802F0B0FE0028EFD097
:101C10004FF4FA726946054B186802F0F9FD9DED24
:101C2000000AFFF7A7FFE3E7A00B0020940B0020BA
:101C300000B583B0002200920D4B596C41F48041F5
:101C40005964596C01F48041009100990192196C1A
:101C500041F0805119641B6C03F080530193019B88
:101C60000F216FF0010000F041FC03B05DF804FBB0
:101C70000038024000B589B0002303930493059314
:101C800006930793026803F1804303F590339A4269
:101C900002D009B05DF804FB0021019103F58C33FB
:101CA0005A6C42F480725A645A6C02F48072019247
:101CB000019A02911A6B42F001021A631B6B03F046
:101CC00001030293029B082303930323049303A9B4
:101CD000014800F099FCDCE70000024030B589B013
:101CE0000023039304930593069307930268154B0F
:101CF0009A4201D009B030BD00250195124C236BEA
:101D000043F002032363236B03F002030193019B5F
:101D10004FF41073039312230493012305930323B9
:101D200006930423079303A9084800F06DFC02956D
:101D3000236C43F400132364236C03F40013029315
:101D4000029BD7E7005400400038024000040240E4
:101D500000B58BB00023059306930793089309936E
:101D60000368274A934208D0B3F1804F19D0254A1F
:101D7000934238D00BB05DF804FB00210191224B57
:101D80005A6C42F001025A645B6C03F00103019348
:101D9000019B0A46192000F0A9FB192000F0DAFB8C
:101DA000E8E70021029103F50E331A6C42F00102BC
:101DB0001A641A6C02F001020292029A03911A6BE1
:101DC00042F001021A631B6B03F001030393039BB0
:101DD00020230593022306930123099305A90B48A9
:101DE00000F012FCC6E700230493074B5A6C42F440
:101DF00080325A645B6C03F480330493049BB9E72C
:101E00000000014000400140003802400000024054
:101E100010B588B000220146192000F067FB192098
:101E200000F098FB00240194144B5A6C42F40032E9
:101E30005A645B6C03F400330193019B02A903A86D
:101E400001F0A8FB01F096FB43000D48A0FB032323
:101E50009B0C013B0B480C4A026040F2E732C26027
:101E600043600461846001F015FD10B1012008B0E9
:101E700010BD044801F0EDFBF9E700BF0038024057
:101E800083DE1B43F00B0020004401407047FEE757
:101E9000FEE7FEE7FEE7704708B5034801F0EEFBFA
:101EA000024801F0EBFB08BDB00B0020F00B002056
:101EB00010B503460C4A0D490D48006840B10C4866
:101EC00000680344521A934206D8094A136010BDB1
:101ED0000748084C0460F2E703F0AEFC0C230360F3
:101EE0004FF0FF30F3E700BF0000022000040000C5
:101EF000300C0020D8550020054BD3F8882042F440
:101F00007002C3F888204FF000629A60704700BFEB
:101F100000ED00E0DFF834D0002103E00C4B5B580B
:101F2000435004310B480C4B42189A42F6D30B4AEB
:101F300002E0002342F8043B094B9A42F9D3FFF731
:101F4000DBFF03F07FFCFFF7A1FD704700000220DC
:101F5000CC9C000800000020300A0020300A00203D
:101F6000D8550020FEE7000008B50B4B1A6842F474
:101F700000721A601A6842F480621A601A6842F4A9
:101F800080721A60032000F09FFA0020FFF740FFE4
:101F9000FFF74EFE002008BD003C0240034A1168D6
:101FA000034B1B780B441360704700BF340C0020B8
:101FB00074000020014B1868704700BF340C0020EB
:101FC0004A4B5A6822F440325A605A6841680A43C0
:101FD0005A600268536823F4807353600268536840
:101FE000016943EA012353600268536823F0407398
:101FF00053600268536881680B43536002689368BA
:1020000023F40063936002689368C1680B43936094
:10201000826A374B9A4257D00268936823F0706304
:10202000936002689368816A0B43936002689368C7
:1020300023F04053936002689368C16A0B43936036
:102040000268936823F00203936002689368017E3C
:1020500043EA4103936090F82030002B3FD00268A0
:10206000536843F4006353600268536823F4604389
:10207000536001684B68426A013A43EA42334B605D
:102080000268D36A23F47003D3620168CB6AC26921
:10209000013A43EA0253CB620268936823F4007367
:1020A00093600268936890F8301043EA412393608C
:1020B0000268936823F480639360026893684169BF
:1020C00043EA8123936070470268936823F070634A
:1020D00093600268936823F040539360B0E702680E
:1020E000536823F400635360CAE700BF0023014034
:1020F0000100000F38B310B50446036C43B1236CE4
:1021000013F0100F0BD00120002384F83C3010BDD9
:10211000FFF7B0FD0023636484F83C30EFE7236CE5
:1021200023F4885323F0020343F002032364204680
:10213000FFF746FF00206064236C23F0030343F0A5
:1021400001032364E0E701207047000030B583B04D
:102150000023019390F83C30012B7FD0012380F8BD
:102160003C300468A36813F0010F12D1A36843F058
:102170000103A3603E4B1C683E4BA3FB0434A40C3C
:1021800004EB44040194019C1CB1019C013C0194AA
:10219000F9E703689C6814F0010F61D0046C24F423
:1021A000E06424F0010444F4807404645B6813F474
:1021B000806F05D0036C23F4405343F480530364D1
:1021C000036C13F4805F36D0436C23F00603436442
:1021D00013460446002280F83C20826B2648D063D8
:1021E000A26B26481064A26B2548D06422686FF069
:1021F000220010602568686840F08060686025688B
:10220000A86840F48070A86020680A4600F14C017C
:10221000A06B00F0C3F91B4B5B6813F01F0F0DD1CF
:1022200023689A6812F0405F1DD19A6842F080429C
:102230009A60002015E000234364C9E72368124A2E
:10224000934201D000200CE09A6812F0405F0CD15C
:102250009A6842F080429A60002002E0022000E08A
:10226000002003B030BD0020FBE70020F9E700BFED
:102270007000002083DE1B43B32200089122000877
:102280009D22000800230140002001407047704754
:1022900008B5806BFFF7FBFF08BD704708B5806B82
:1022A00040230364436C43F004034364FFF7F5FFEA
:1022B00008BD08B5836B1A6C12F0500F26D11A6C4A
:1022C00042F400721A641A68916811F0405F19D1E3
:1022D000197EB9B9D16A11F4700F03D0916811F465
:1022E000806F0FD1516821F0200151601A6C22F4E7
:1022F00080721A641A6C12F4805F03D11A6C42F077
:1023000001021A641846FFF7C1FF08BD1A6C12F0EB
:10231000100F03D19B6BDB6C9847F6E71846FFF76D
:10232000BCFFF2E730B482B00023019390F83C3058
:10233000012B00F0BC80012380F83C300B68092B96
:102340003ED90568EA689BB203EB43031E3B0724B2
:1023500004FA03F322EA0303EB600568EA688C6879
:102360000B8803EB43031E3B04FA03F31343EB60B8
:102370004B68062B3AD805686A6B03EB8303053B71
:102380001F2404FA03F322EA03036B6305686A6BF4
:102390004B6803EB8303053B0C8804FA03F31343F8
:1023A0006B630268434B9A4250D00268414B9A4299
:1023B00059D0002380F83C30184602B030BC70473A
:1023C00005682A699BB203EB4303072404FA03F36D
:1023D00022EA03032B6105682A698C680B8803EBEA
:1023E000430304FA03F313432B61C1E70C2B16D804
:1023F00005682A6B03EB8303233B1F2404FA03F3D2
:1024000022EA03032B6305682A6B4B6803EB830303
:10241000233B0C8804FA03F313432B63C1E70568DD
:10242000EA6A03EB8303413B1F2404FA03F322EA25
:102430000303EB620568EA6A4B6803EB8303413BE5
:102440000C8804FA03F31343EB62AAE70B68122B20
:10245000ABD1194B5A6822F400025A605A6842F410
:1024600080025A60A1E70B68144A934201D0112BF5
:102470009FD1114B5A6822F480025A605A6842F484
:1024800000025A600A680D4B9A4292D10C4B1B68AD
:102490000C4AA2FB03239B0C03EB83035A0001921B
:1024A000019B002B85D0019B013B0193F8E70220A3
:1024B00083E700BF0020014000230140120000100C
:1024C0007000002083DE1B43074AD36823F4E063D7
:1024D0001B041B0C000200F4E060184340F0BF60D6
:1024E00040F40030D060704700ED00E030B4174B8E
:1024F000DB68C3F30223C3F10704042C28BF0424C0
:102500001D1D062D01D9033B00E000234FF0FF35D0
:1025100005FA04F421EA0401994005FA03F322EADA
:1025200003031943002809DB0901C9B200F1604027
:1025300000F5614080F8001330BC704700F00F00D8
:102540000901C9B2024B1954F6E700BF00ED00E0E3
:1025500014ED00E0002807DB00F01F024009012312
:102560009340024A42F82030704700BF00E100E08B
:1025700030B405682C6824F480242C6004686360FF
:102580008368402B05D0036899600368DA6030BC2B
:10259000704703689A600368D960F8E738B5856DBD
:1025A00090F83440012C2CD0012480F8344090F86D
:1025B0003540E4B2012C04D0002380F834300220EE
:1025C00038BD0446022084F83500002060652046AE
:1025D000FFF7CEFFE26D3F239340AB6022681368A4
:1025E00043F016031360236C23B12268136843F091
:1025F000080313602268136843F00103136000208E
:10260000DEE70220DCE7000000230F2B00F2C4808D
:10261000F0B583B039E0042200E00022B2403A4332
:1026200002355E4E46F825205D4A1568E24302EA0F
:1026300005064F6817F4803F01D044EA0506584D5F
:102640002E606D6802EA05064F6817F4003F01D05E
:1026500044EA0506524D6E60AD6802EA05064F6811
:1026600017F4801F01D044EA05064D4DAE60ED68B9
:102670002A404E6816F4001F01D044EA0502484C77
:10268000E26001330F2B00F2858001229A400C6832
:102690001440A242F5D14D686E1E012E03D9112DB2
:1026A00001D0122D12D186685F000325BD4026EAB5
:1026B0000506CD68BD4035438560466826EA0206BA
:1026C0004D68C5F300129A4032434260C5685F000E
:1026D0000322BA40D24315408E68BE402E43C660E6
:1026E0004D68022D01D0122D13D1DE08083650F8A6
:1026F00026E003F007054FEA850C0F2505FA0CF5D7
:102700002EEA050E0D6905FA0CF545EA0E0540F8AE
:10271000265005682A404D6805F00305BD402A4350
:1027200002604A6812F0805FABD0002201921D4A1D
:10273000556C45F480455564526C02F48042019218
:10274000019A9D08AE1C154A52F8267003F0030248
:1027500096000F22B24027EA0207134A90423FF444
:102760005CAF02F5806290420ED002F5806290422A
:102770000CD002F5806290420AD002F5806290424D
:102780003FF449AF072249E7012247E7022245E724
:10279000032243E703B0F0BD704700BF003801409B
:1027A000003C014000380240000002400369194229
:1027B00001D001207047002070470AB18161704745
:1027C00009048161704703685A6912F4806F01D16E
:1027D000002070476FF480625A6100230363202257
:1027E00080F83D2080F83E30026C42F00402026422
:1027F00080F83C3001207047F8B506460C46174675
:102800001D4622E0FFF7D6FB069BC01AA84200D85F
:10281000DDB900233363202286F83D2086F83E3060
:10282000326C42F02002326486F83C3001201AE01B
:1028300033689B6924EA03039BB2B3FA83F35B0911
:102840009F420FD1B5F1FF3FDCD1C4F30743012B09
:10285000EED133685B6924EA03039BB2B3FA83F3D6
:102860005B09EDE70020F8BDF8B504460D461646B5
:102870001F463CE01A6842F400721A6023686FF445
:1028800080625A6100232363202284F83D2084F86B
:102890003E30226C42F00402226484F83C30012075
:1028A00033E0FFF787FBC01BB04200D8FEB900231E
:1028B0002363202284F83D2084F83E30226C42F0CD
:1028C0002002226484F83C3001201EE023689B69CA
:1028D00025EA03039BB2003318BF0123A3B1236889
:1028E0005A6912F4806FC5D1B6F1FF3FD9D1C5F353
:1028F0000743012BEAD123685B6925EA03039BB2F6
:10290000003318BF0123E9E70020F8BDF0B583B01C
:1029100004460D4616461F46C36A082B0DD0012BF0
:102920000BD013F5803F08D0036B122B0AD102683D
:10293000136843F48073136004E02268136843F45F
:10294000807313600097334600224FF00111204638
:10295000FFF752FF90B92369B3F5804F18D1236870
:1029600005F0FE051D613B46324614492046FFF73F
:102970007BFF034600BB184603B0F0BD23681B680D
:1029800013F4807F02D04FF4007323640323F2E733
:10299000EB11226803F0060343F0F00313613B469A
:1029A000324607492046FFF75FFF18B92368EDB2AA
:1029B0001D61D8E70123DEE70123DCE70200010007
:1029C0000800010070B504460D46164623685B6991
:1029D00013F0800F1CD12046FFF7F5FED0B9B5F1FA
:1029E000FF3FF3D0FFF7E6FA801BA84201D8002D85
:1029F000ECD100232363202284F83D2084F83E306C
:102A0000226C42F02002226484F83C30012000E075
:102A1000002070BD0120FCE770B504460D46164647
:102A200023685B6913F0040F1CD12046FFF7CBFE2F
:102A3000D0B9B5F1FF3FF3D0FFF7BCFA801BA84235
:102A400001D8002DECD100232363202284F83D20FF
:102A500084F83E30226C42F02002226484F83C303C
:102A6000012000E0002070BD0120FCE7002800F0FC
:102A7000CB80F8B5044690F83D30002B76D0242367
:102A800084F83D302268136823F001031360226844
:102A9000136843F4004313602268136823F400436F
:102AA000136000F057FD6268594B9A4263D8594B46
:102AB00098428CBF00230123002B40F0A780564B87
:102AC000A3FB00239B0C21684A6822F03F021A43B3
:102AD0004A6025682A6A22F03F0266684C498E42A5
:102AE0004FD8013313432B622568E96921F44F4124
:102AF00021F0FF016368464A93424CD801385B00DD
:102B0000B0FBF3F0013040F6FC73184278D0C0F30C
:102B10000B030B43EB6121680B6823F0C003E269F0
:102B2000206A024313430B6021688B6823F403433C
:102B300023F0FF032269E068024313438B6021689E
:102B4000CB6823F0FF036269A06902431343CB60A3
:102B50002268136843F001031360002020642023DF
:102B600084F83D30206384F83E00F8BD80F83C30A6
:102B7000FFF7B4F883E7294B98428CBF0023012369
:102B80009AE74FF4967101FB03F32549A1FB031368
:102B90009B090133A6E7A268BAB9461E03EB4307B7
:102BA000B6FBF7F60136C6F30B06B6FA86F67609DB
:102BB00046BBC2B9421E03EB4303B2FBF3F2013240
:102BC000C2F30B0242F40043A3E7461E03EB830764
:102BD00007EB8707B6FBF7F60136C6F30B06B6FA26
:102BE00086F67609E4E7421E03EB830303EB8303D7
:102BF000B2FBF3F20132C2F30B0242F4404388E726
:102C0000042386E7012384E7012070470120ACE715
:102C1000A08601007F841E0083DE1B43FF083D0069
:102C2000D34D62102DE9F04184B004460E46904623
:102C30001F46FFF7BFF994F83D30DBB2202B04D0DC
:102C40000226304604B0BDE8F08105460090192305
:102C500001224E492046FFF7CFFD002840F08F802B
:102C600094F83C30012B00F08C80012384F83C3038
:102C700023681A6812F0010F03D11A6842F00102AA
:102C80001A602268136823F400631360212384F818
:102C90003D30102384F83E3000232364C4F82480A0
:102CA0006785638D23853A4BE3622B460A9A31464A
:102CB0002046FFF72BFE0646002864D1002303932D
:102CC00023685A6903929B690393039B11E0236C69
:102CD000042B01D00126B4E72268136843F4007383
:102CE0001360F7E72A460A992046FFF795FE002869
:102CF0002CD1238D002B34D02A460A992046FFF789
:102D000061FE0028E3D1626A236812781A61616A61
:102D10004B1C6362638D013B9BB26385238D013B3A
:102D20009BB223852268506910F0040FDAD0002B83
:102D3000D8D04B781361636A01336362638D013BC2
:102D40009BB26385238D013B2385CBE7236C042B4A
:102D500001D0012675E72268136843F400731360FD
:102D6000F7E72268136843F400731360202384F8A4
:102D70003D30002384F83E3084F83C3061E7022681
:102D80005FE702265DE701265BE700BF0200100057
:102D90000000FFFF2DE9F04385B0044688469146C8
:102DA0001D46FFF707F994F83D30DBB2202B04D025
:102DB0000223184605B0BDE8F083064600901923AB
:102DC000012258492046FFF717FD002840F0A18056
:102DD00094F83C30012B00F09E80012384F83C30B5
:102DE00023681A6812F0010F03D11A6842F0010239
:102DF0001A602268136823F400631360242384F8A4
:102E00003D3000232364A3F58033E36201273EE0D5
:102E100023681B6813F4807F02D04FF4007323648F
:102E20000323C6E7A02384F83D3023685A69C2F320
:102E300040025969C1F3802194F83D30DBB2A02BE8
:102E400009D042B939B9FFF7B5F8801BA842E9D8D3
:102E5000002DEAD1E6E7202384F83D3023685A6943
:102E600012F0020F31D11A6842F400721A6023681E
:102E70006FF480625A610096192301222949204685
:102E8000FFF7BAFC00284AD101374F4539D22268F2
:102E9000136843F48073136000962B4600224FF0B2
:102EA00001112046FFF7A8FC0028B1D1236808F0E3
:102EB000FE021A61FFF77EF8064623685A69C2F3DC
:102EC00040025969C1F38021B6E71A6842F40072E2
:102ED0001A600023039323685A6903929B69039342
:102EE000039B0096192301220E492046FFF784FC1C
:102EF000034690B9202284F83D20002284F83C202B
:102F000057E7202384F83D30002384F83C30012328
:102F10004FE702234DE702234BE7012349E7012353
:102F200047E700BF02001000002800F0D98170B50B
:102F300082B00446036813F0010F3BD0A64B9B6898
:102F400003F00C03042B2CD0A34B9B6803F00C0361
:102F5000082B21D06368B3F5803F4FD0B3F5A02F85
:102F600052D09D4B1A6822F480321A601A6822F4FB
:102F700080221A606368002B50D0FFF71BF80546CB
:102F8000954B1B6813F4003F14D1FFF713F8401B57
:102F90006428F5D90320AAE18F4B5B6813F4800FF6
:102FA000D8D08D4B1B6813F4003F03D06368002B0F
:102FB00000F09881236813F0020F54D0864B9B6871
:102FC00013F00C0F3ED0844B9B6803F00C03082BCE
:102FD00033D0E368002B67D0804B01221A60FEF7E4
:102FE000E9FF05467C4B1B6813F0020F53D1FEF737
:102FF000E1FF401B0228F5D9032078E1764A1368E7
:1030000043F480331360B5E7734B1A6842F48022AF
:103010001A601A6842F480321A60ABE7FEF7CAFF02
:1030200005466D4B1B6813F4003FC3D0FEF7C2FF8B
:10303000401B6428F5D9032059E1674B5B6813F402
:10304000800FC6D1644B1B6813F0020F03D0E368F6
:10305000012B40F04981604A136823F0F80321698D
:1030600043EAC1031360236813F0080F40D063697B
:1030700063B35B4B01221A60FEF79CFF0546564B7B
:103080005B6F13F0020F33D1FEF794FF401B022851
:10309000F5D903202BE1504A136823F0F803216986
:1030A00043EAC1031360DEE74C4B00221A60FEF7CF
:1030B00081FF0546484B1B6813F0020FD3D0FEF783
:1030C00079FF401B0228F5D9032010E1444B002270
:1030D0001A60FEF76FFF05463F4B5B6F13F0020F60
:1030E00006D0FEF767FF401B0228F5D90320FEE05B
:1030F000236813F0040F78D0374B1B6C13F0805FFC
:1031000033D100230193344B1A6C42F080521A647D
:103110001B6C03F080530193019B0125314B1B680D
:1031200013F4807F23D0A368012B34D0052B38D033
:10313000294B1A6F22F001021A671A6F22F004025B
:103140001A67A368002B36D0FEF734FF0646224BE1
:103150001B6F13F0020F47D1FEF72CFF801B41F2CB
:1031600088339842F3D90320C1E00025D6E71D4AF1
:10317000136843F480731360FEF71CFF0646194B77
:103180001B6813F4807FCED1FEF714FF801B02284A
:10319000F5D90320ABE0104A136F43F00103136726
:1031A000CFE70D4B1A6F42F004021A671A6F42F014
:1031B00001021A67C5E7FEF7FDFE0646064B1B6FC8
:1031C00013F0020F10D0FEF7F5FE801B41F288339A
:1031D0009842F3D903208AE00038024000004742B9
:1031E000800E474200700040E5B9A369002B7DD0F6
:1031F000464A926802F00C02082A51D0022B17D0DE
:10320000434B00221A60FEF7D5FE04463F4B1B6875
:1032100013F0007F42D0FEF7CDFE001B0228F5D947
:10322000032064E0394A136C23F080531364DCE715
:10323000374B00221A60FEF7BDFE0546334B1B6874
:1032400013F0007F06D0FEF7B5FE401B0228F5D92B
:1032500003204CE0E369226A1343626A43EA821363
:10326000A26A5208013A43EA0243E26A43EA02636D
:10327000264A5360264B01221A60FEF79BFE044645
:10328000224B1B6813F0007F06D1FEF793FE001B54
:103290000228F5D903202AE0002028E0002026E0BB
:1032A000012B26D0194B5B6803F48001E26991423F
:1032B00021D103F03F02216A8A421ED1616A47F69A
:1032C000C0721A408A421AD103F44032A16A8A427B
:1032D00017D103F07063E26A934214D1002006E034
:1032E00001207047012002E0012000E0002002B030
:1032F00070BD0120FBE70120F9E70120F7E701207D
:10330000F5E70120F3E70120F1E700BF00380240B4
:1033100060004742314B9B6803F00C03042B58D0EC
:10332000082B58D170B52D4B5A6802F03F025B68EC
:1033300013F4800F2AD0294B5868C0F38810054633
:10334000002643011B1A66EB0604A10141EA9361C2
:103350009801C01A61EB0401CB0043EA5073C4002A
:103360001946601946EB01014B0243EAD05344026F
:10337000204619463346FDF761FB184B5B68C3F3E3
:10338000014301335B00B0FBF3F070BD134B586891
:10339000C0F388100546002643011B1A66EB06049D
:1033A000A10141EA93619801C01A61EB0401CB00CD
:1033B00043EA5073C4001946601946EB01018B02C1
:1033C00043EA90538402204619463346FDF736FB04
:1033D000D3E7034870470348704700BF00380240F6
:1033E00000127A000024F400002800F09B8070B5E1
:1033F0000446504B1B6803F00F038B4208D2CBB23C
:103400004C4A1370136803F00F038B4240F08C801A
:10341000236813F0020F17D013F0040F04D0464AAC
:10342000936843F4E0539360236813F0080F04D0CB
:10343000414A936843F4604393603F4A936823F0A2
:10344000F003A068034393600D46236813F0010F57
:1034500032D06368012B21D09A1E012A25D9364A21
:10346000126812F0020F61D033498A6822F0030219
:1034700013438B60FEF79EFD06462F4B9B6803F0BF
:103480000C036268B3EB820F16D0FEF793FD801B2E
:1034900041F288339842F0D9032042E0264A12686C
:1034A00012F4003FE0D101203BE0234A126812F001
:1034B000007FD9D1012034E01E4B1B6803F00F03BD
:1034C000AB4207D9EAB21B4B1A701B6803F00F031B
:1034D000AB422DD1236813F0040F06D0164A93682F
:1034E00023F4E053E1680B439360236813F0080F63
:1034F00007D0114A936823F46043216943EAC1036A
:103500009360FFF707FF0C4B9B68C3F303130B4A51
:10351000D35CD8400A4B18600A4B1868FEF778FC59
:10352000002070BD012070470120FAE70120F8E774
:103530000120F6E7003C024000380240FC990008F8
:103540007000002078000020014B1868704700BF11
:103550007000002008B5FFF7F7FF044B9B68C3F32A
:103560008223034AD35CD84008BD00BF0038024024
:103570000C9A000808B5FFF7E7FF044B9B68C3F3FC
:103580004233034AD35CD84008BD00BF0038024034
:103590000C9A00080F2303600B4B9A6802F0030299
:1035A00042609A6802F0F00282609A6802F4E05287
:1035B000C2609B68DB0803F4E0530361034B1B68A4
:1035C00003F00F030B60704700380240003C0240DC
:1035D00010B4036A046A24F001040462846924F0CC
:1035E000F00444EA021223F00A030B4382610362EF
:1035F0005DF8044B704710B4036A23F010030362B4
:103600008469036A24F4704444EA023223F0A0037C
:1036100043EA0113826103625DF8044B70478368DB
:1036200023F07003194341F00701816070470223C2
:1036300080F83D300268936803F00703062B03D03F
:10364000136843F001031360012380F83D3000202C
:1036500070470268D36843F00103D360026893683F
:1036600003F00703062B03D0136843F00103136034
:1036700000207047704770477047704710B5044688
:1036800003681A6912F0020F11D0DA6812F0020F03
:103690000DD06FF002021A610123037703689B6962
:1036A00013F0030F70D0FFF7E6FF002323772368A2
:1036B0001A6912F0040F12D0DA6812F0040F0ED05B
:1036C0006FF004021A610223237723689B6913F4C5
:1036D000407F5FD02046FFF7CEFF0023237723688B
:1036E0001A6912F0080F12D0DA6812F0080F0ED023
:1036F0006FF008021A61042323772368DB6913F053
:10370000030F4ED02046FFF7B6FF00232377236830
:103710001A6912F0100F12D0DA6812F0100F0ED0E2
:103720006FF010021A61082323772368DB6913F412
:10373000407F3DD02046FFF79EFF0023237723687C
:103740001A6912F0010F03D0DA6812F0010F36D1B6
:1037500023681A6912F0800F03D0DA6812F0800F24
:1037600034D123681A6912F0400F03D0DA6812F0DE
:10377000400F32D123681A6912F0200F03D0DA68A3
:1037800012F0200F30D110BDFFF774FF2046FFF775
:1037900073FF8AE72046FFF76DFF2046FFF76CFFB7
:1037A0009BE72046FFF766FF2046FFF765FFACE783
:1037B0002046FFF75FFF2046FFF75EFFBDE76FF093
:1037C00001021A612046FDF79BFDC1E76FF0800200
:1037D0001A61204600F02FF9C3E76FF040021A612A
:1037E0002046FFF74AFFC5E76FF020021A61204626
:1037F00000F020F9C7E700000368254A90420ED088
:10380000B0F1804F0BD0A2F57C42904207D002F578
:103810008062904203D002F58062904203D123F08F
:1038200070034A6813431A4A90421AD0B0F1804F8D
:1038300017D0A2F57C42904213D002F580629042EC
:103840000FD002F5806290420BD002F59A3290427E
:1038500007D002F58062904203D002F58062904268
:1038600003D123F44073CA68134323F080034A69E9
:10387000134303608B68C3620B688362044B9842F6
:1038800002D00123436170470B690363F9E700BF6E
:1038900000000140B0B110B5044690F83D3063B16E
:1038A000022384F83D30214651F8040BFFF7A4FFB2
:1038B000012384F83D30002010BD80F83C30FEF735
:1038C00047FAEDE70120704710B4846824F47F4480
:1038D00042EA03230B43234383605DF8044B7047A4
:1038E00090F83C30012B67D010B50446012380F8D6
:1038F0003C30022380F83D300268936823F47F4314
:1039000023F0770393600B68402B4BD013D9602BC7
:103910003ED025D9702B2FD0B3F5005F19D1CB68DD
:103920004A6889680068FFF7CFFF2268936843F40C
:10393000804393600DE0102B04D008D9202B01D0D8
:10394000302B06D119462068FFF769FE01E0002BF5
:10395000F8D0012384F83D30002084F83C0010BDED
:10396000502BF6D1CA6849680068FFF731FE502134
:103970002068FFF754FEECE7CB684A688968006866
:10398000FFF7A2FF2268936843F077039360E0E7B4
:10399000CA6849680068FFF72EFE60212068FFF7BB
:1039A0003EFED6E7CA6849680068FFF711FE40216D
:1039B0002068FFF734FECCE70220704790F83C30D7
:1039C000012B33D030B4012380F83C30022380F83F
:1039D0003D3003685C689D6824F070040A682243E7
:1039E0005A600368124A934212D0B3F1804F0FD04D
:1039F000A2F57C4293420BD002F58062934207D03D
:103A000002F58062934203D002F59A32934204D1C8
:103A100025F080054A6815439D60012380F83D30FC
:103A2000002380F83C30184630BC704702207047B5
:103A30000000014070477047EFF305837BB9EFF357
:103A4000108313B9EFF311831BB1094B1B68022BD1
:103A500008D0074B186840B901221A6070476FF010
:103A6000050070476FF0050070474FF0FF3070475A
:103A7000940E002008B5EFF30583A3B9EFF310838C
:103A800013B9EFF311831BB10B4B1B68022B0DD045
:103A9000094B1B68012B0CD1074B02221A6001F065
:103AA000A5F9002008BD6FF00500FBE76FF00500E9
:103AB000F8E74FF0FF30F5E7940E0020F0B587B03F
:103AC00000240594EFF30584002C38D1EFF3108324
:103AD00013B9EFF311831BB12D4B1B68022B2ED0B2
:103AE00068B322B31668946904B91824631E372B8F
:103AF00049D8536813F0010F47D155696DB14FEAAA
:103B0000950C93682BB1D7685B2F02D9176907B161
:103B1000C5B92BB14FF0FF350EE04FF0800CF0E748
:103B2000D3688BB9136993B14FF0FF3504E01646A3
:103B3000002518244FF0800C012D0AD0ADB1059856
:103B400007B0F0BD0125F7E74FF0FF35F4E700259A
:103B5000F2E7136992680292019300940B46624661
:103B6000314601F0D5F80590E9E705AA01920094E5
:103B70000B461FFA8CF2314601F004F90128DED021
:103B800000230593DBE70020DAE70020D8E700BF39
:103B9000940E002008B5EFF3058383B9EFF310838B
:103BA00013B9EFF311831BB1084B1B68022B09D02B
:103BB00008B9002008BD01F079FA0020FAE76FF09B
:103BC0000500F7E76FF00500F4E700BF940E002052
:103BD00070B582B0EFF30583002B44D11446EFF3A8
:103BE000108313B9EFF311831BB1254B1B68022B14
:103BF0003DD000283DD000293DD06CB3A3684BB127
:103C0000E2684F2A06D9226922B1666901FB00F5F4
:103C1000AE421BD273B14FF0FF3373BB002200F0F2
:103C2000A8FC054605B304B124682146284600F0E7
:103C3000B1FE19E0E3688BB9236913B14FF0FF338C
:103C4000EBE763696BB14FF0FF33E6E700250095C2
:103C500000F045FC0546E5E70023DEE74FF0FF33C3
:103C6000DBE70023D9E70025284602B070BD002518
:103C7000FAE70025F8E70025F6E70025F4E700BF9E
:103C8000940E0020034B0360034B0B6080231360F2
:103C9000704700BF380E0020380C0020034B036033
:103CA000034B0B604FF48073136070479812002031
:103CB000980E002000F1080343604FF0FF3282604D
:103CC000C3600361002303607047002303617047F2
:103CD00043684B609A688A60516099600861036824
:103CE00001330360704730B40D68B5F1FF3F02D077
:103CF00000F1080202E0026904E01A4653681C68F9
:103D0000AC42FAD953684B6099608A60516008618F
:103D100003680133036030BC7047036941688268FF
:103D20008A60416851605A68824206D0002202616E
:103D30001A68013A1A601868704782685A60F5E795
:103D400082B0002301930D4B1B68B3F1FF3F08D0F5
:103D50004FF0500383F31188BFF36F8FBFF34F8F82
:103D6000FEE74FF0500383F31188BFF36F8FBFF36B
:103D70004F8F019B002BFCD002B070477C000020CD
:103D800008480068006880F308884FF0000080F35E
:103D9000148862B661B6BFF34F8FBFF36F8F00DF39
:103DA00000BF000008ED00E0DFF80C00016841F4FE
:103DB000700101607047000088ED00E04FF08073F3
:103DC00040F8043C21F0010140F8081C054B40F884
:103DD0000C3C40F8202C6FF0020340F8243C44389F
:103DE000704700BF413D00080000000000000000D7
:103DF000074B19680868B0E8F04F80F30988BFF3F3
:103E00006F8F4FF0000080F311887047AFF3008090
:103E1000544F00204FF0500383F31188BFF36F8F8E
:103E2000BFF34F8F0A4A136801331360012B00D090
:103E30007047084B1B6813F0FF0FF9D04FF0500389
:103E400083F31188BFF36F8FBFF34F8FFEE700BF7F
:103E50007C00002004ED00E0094B1B6843B94FF0E3
:103E6000500383F31188BFF36F8FBFF34F8FFEE7CB
:103E7000013B034A13600BB983F31188704700BFFD
:103E80007C00002000000000000000000000000096
:103E9000EFF30980BFF36F8F154B1A681EF0100FF8
:103EA00008BF20ED108A20E9F04F10602DE90900CD
:103EB0004FF0500080F31188BFF34F8FBFF36F8F27
:103EC00001F01AF94FF0000080F3118809BC19685D
:103ED0000868B0E8F04F1EF0100F08BFB0EC108A71
:103EE00080F30988BFF36F8F704700BFAFF3008086
:103EF000544F002008B54FF0500383F31188BFF3EF
:103F00006F8FBFF34F8F00F0C9FF18B1034B4FF015
:103F100080521A60002383F3118808BD04ED00E08D
:103F2000084A0023136008490B60084B1B680849C6
:103F3000A1FB03139B09013B06490B600723136098
:103F4000704700BF10E000E018E000E070000020C3
:103F5000D34D621014E000E03A4B1A683A4B9A4293
:103F600029D0384B1A68394B9A422DD010B582B0FF
:103F7000374B1A78D2B20192FF221A701B78DBB24B
:103F80008DF803309DF8033003F05003314A13706D
:103F9000314B07221A609DF8033013F0800F1CD0BC
:103FA0002D4A1368013B13609DF803305B00DBB2C0
:103FB0008DF80330EFE74FF0500383F31188BFF320
:103FC0006F8FBFF34F8FFEE74FF0500383F31188DD
:103FD000BFF36F8FBFF34F8FFEE71F4B1B68032BA1
:103FE00008D04FF0500383F31188BFF36F8FBFF3F6
:103FF0004F8FFEE71B0203F4E063174A1360019B37
:10400000DBB2134A1370154B1A6842F470021A603F
:104010001A6842F070421A60FFF782FF0024104BCA
:104020001C60FFF7C1FE0F4A136843F04043136062
:10403000FFF7A6FE01F060F8FFF782FE204602B00F
:1040400010BD00BF00ED00E071C20F4170C20F4112
:1040500000E400E0F4120020F812002020ED00E05F
:104060007C00002034EF00E0EFF305830F2B0FD925
:10407000104A9B5CDBB2104A12789A4208D94FF082
:10408000500383F31188BFF36F8FBFF34F8FFEE7A9
:104090000A4B1B6803F4E063094A1268934208D98B
:1040A0004FF0500383F31188BFF36F8FBFF34F8F2F
:1040B000FEE77047F0E300E0F41200200CED00E0B2
:1040C000F8120020124A12F0070F07D0D11D21F07C
:1040D0000701C1F5705313440A4601E04FF47053D1
:1040E0000C480260002141601344083B23F00703A1
:1040F0000948036059601960991A51601360074BB1
:104100001960074B1960074B4FF000421A60704767
:10411000001300200C4F0020FC120020084F00204C
:10412000044F0020004F002010B4134A00E01A464C
:1041300013688342FBD35168541884420AD0416803
:104140004418A3420BD00360904200D010605DF889
:10415000044B70474068014451601046EFE7074C3C
:104160002468A34206D05B681944416013681B6849
:104170000360E9E70460E7E70C4F0020FC12002031
:1041800070B5044600F07CFE3A4B1B68BBB13A4B5D
:104190001B681C4256D1ACB1083414F0070F11D083
:1041A00024F00704083404F007035BB14FF0500318
:1041B00083F31188BFF36F8FBFF34F8FFEE7FFF7D5
:1041C00081FFE4E7002C3FD02C4B1B68A3424AD36D
:1041D0002B4B1D6801E02B4615466A68A24202D2AD
:1041E0002A68002AF7D1234A1268AA423DD01E68E5
:1041F00008362A681A606B681B1B102B10D9281907
:1042000010F0070F08D04FF0500383F31188BFF36D
:104210006F8FBFF34F8FFEE743606C60FFF784FF43
:104220006A6816490B689B1A0B60164909688B422D
:1042300001D214490B60104B1B6813436B600023C1
:104240002B6002E0002600E0002600F0B3FE16F02E
:10425000070F0CD04FF0500383F31188BFF36F8F1B
:10426000BFF34F8FFEE70026EFE70026EDE730466D
:1042700070BD00BFFC120020004F0020044F002042
:104280000C4F0020084F002080B338B50446A0F141
:10429000080550F8042C164909680A4208D14FF065
:1042A000500383F31188BFF36F8FBFF34F8FFEE787
:1042B00050F8080C40B14FF0500383F31188BFF35E
:1042C0006F8FBFF34F8FFEE722EA010244F8042C00
:1042D00000F0D6FD54F8041C064A13680B44136022
:1042E0002846FFF721FF00F065FE38BD704700BF8C
:1042F000004F0020044F002010B50446FFF78AFD50
:10430000A26BE36B9A4204D00024FFF7A5FD204680
:1043100010BD0124F9E710B50446FFF77BFDA36B40
:1043200023B90124FFF798FD204610BD0024F9E7CA
:1043300070B504461646856B026C5AB903681BB10A
:1043400000200135A56370BD806801F001F80023ED
:10435000A360F6E76EB94068FCF7F2FC226C636874
:1043600013446360A268934219D3236863603046A4
:10437000E7E7C068FCF7E4FC226C5242E3681344B0
:10438000E36021688B4202D2A3681A44E260022EE5
:1043900001D00020D5E725B1013D0020D1E730460E
:1043A000CFE70020CDE7026C72B110B5C3681344AB
:1043B000C3608468A34201D30368C3600C46C1682C
:1043C0002046FCF7BDFC10BD704738B50546FFF729
:1043D00021FD95F8454064B203E000F0A3FF013CE5
:1043E00064B2002C08DD6B6A33B105F1240000F0E3
:1043F00005FF0028F3D0F0E7FF2385F84530FFF7ED
:104400002BFDFFF707FD95F8444064B203E000F090
:1044100089FF013C64B2002C08DD2B6933B105F142
:10442000100000F0EBFE0028F3D0F0E7FF2385F842
:104430004430FFF711FD38BD38B5E0B104460D46F4
:10444000FFF7E8FC2168E26B236C03FB0210A0601D
:104450000020A0636160013A02FB0313E360FF23C5
:1044600084F8443084F84530EDB9236963B9FFF727
:10447000F3FC012038BD4FF0500383F31188BFF3E4
:104480006F8FBFF34F8FFEE704F1100000F0B6FE10
:104490000028ECD0084B4FF080521A60BFF34F8FCA
:1044A000BFF36F8FE3E704F11000FFF703FC04F1A3
:1044B0002400FFF7FFFBDAE704ED00E038B51D4606
:1044C000049C0B4649B92460E06323640121204623
:1044D000FFF7B2FF84F84C5038BD2260F4E740B9D2
:1044E0004FF0500383F31188BFF36F8FBFF34F8FEB
:1044F000FEE710B584B0044653B192B189B94FF0CC
:10450000500383F31188BFF36F8FBFF34F8FFEE724
:104510004FF0500383F31188BFF36F8FBFF34F8FBA
:10452000FEE76AB1502003900398502813D04FF053
:10453000500383F31188BFF36F8FBFF34F8FFEE7F4
:104540000029EFD04FF0500383F31188BFF36F8F32
:10455000BFF34F8FFEE720461C46039B012384F8E0
:10456000463000949DF81830FFF7A8FF204604B0AD
:1045700010BD40B94FF0500383F31188BFF36F8F24
:10458000BFF34F8FFEE7F0B583B00646B1B101FB34
:1045900000F017460C465030FFF7F2FD054650B1CB
:1045A000002380F8463000903B4600F1500221463F
:1045B0003046FFF783FF284603B0F0BD0846E8E722
:1045C000F0B585B0019278B10446B1B1022B20D18B
:1045D000E26B012A1DD04FF0500383F31188BFF323
:1045E0006F8FBFF34F8FFEE74FF0500383F31188B7
:1045F000BFF36F8FBFF34F8FFEE7026C002AE5D049
:104600004FF0500383F31188BFF36F8FBFF34F8FC9
:10461000FEE71D460E4600F08BFE074658B9019B8B
:10462000002B44D04FF0500383F31188BFF36F8FFA
:10463000BFF34F8FFEE7002739E02A463146204678
:10464000FFF776FE636A6BB938B13C4B4FF080528E
:104650001A60BFF34F8FBFF36F8FFFF7FDFB012091
:1046600005B0F0BD04F1240000F0C8FD0028F4D02E
:10467000324B4FF080521A60BFF34F8FBFF36F8FF2
:10468000EBE7FFF7E9FB0020EAE702A800F0FCFDFA
:10469000012719E0002384F8443021E0002384F846
:1046A000453023E02046FFF790FE00F083FCFFF743
:1046B000B1FBA26BE36B9A42BFD3022DBDD0019B2D
:1046C000002BDED0002FE0D0FFF7C6FB00F0D8FBB8
:1046D000FFF7A0FB94F844305BB2B3F1FF3FD9D0B1
:1046E00094F845305BB2B3F1FF3FD7D0FFF7B4FB8E
:1046F00001A902A800F0D4FDC8B92046FFF7FCFDCF
:104700000028CFD0019904F1100000F043FD2046AD
:10471000FFF75BFE00F04EFC0028C8D1074B4FF0BE
:1047200080521A60BFF34F8FBFF36F8FBFE72046F1
:10473000FFF74BFE00F03EFC002091E704ED00E0A7
:104740002DE9F84378B10446B1B1022B20D1E06BDA
:1047500001281DD04FF0500383F31188BFF36F8FF2
:10476000BFF34F8FFEE74FF0500383F31188BFF381
:104770006F8FBFF34F8FFEE7006C0028E5D04FF03E
:10478000500383F31188BFF36F8FBFF34F8FFEE7A2
:104790001F4690468946FFF767FCEFF311864FF0FE
:1047A000500383F31188BFF36F8FBFF34F8FA26B5A
:1047B000E36B9A4206D3022F04D0002086F31188BF
:1047C000BDE8F88394F845506DB23A464946204614
:1047D000FFF7AEFDB5F1FF3F05D06B1C5BB284F86F
:1047E00045300120EAE7636A0BB90120E6E704F1EE
:1047F000240000F003FD30B1B8F1000F05D0012016
:10480000C8F80000DAE70120D8E70120D6E7000069
:10481000F0B585B0019290B10446C9B10E4600F0E2
:1048200087FD074600BB019B002B5CD04FF0500377
:1048300083F31188BFF36F8FBFF34F8FFEE74FF005
:10484000500383F31188BFF36F8FBFF34F8FFEE7E1
:10485000036C002BE2D04FF0500383F31188BFF3B9
:104860006F8FBFF34F8FFEE700273CE031462046B5
:10487000FFF799FD013DA563236923B9FFF7ECFA22
:10488000012005B0F0BD04F1100000F0B7FC0028D5
:10489000F4D0354B4FF080521A60BFF34F8FBFF307
:1048A0006F8FEBE7FFF7D8FA0020EAE702A800F0E5
:1048B000EBFC012721E0002384F8443029E00023A9
:1048C00084F845302BE02046FFF77FFD00F072FBB7
:1048D00009E02046FFF779FD00F06CFB2046FFF76A
:1048E0001AFD00283DD1FFF795FAA56B002DBDD12B
:1048F000019B002BD6D0002FD8D0FFF7ADFA00F0E7
:10490000BFFAFFF787FA94F844305BB2B3F1FF3F88
:10491000D1D094F845305BB2B3F1FF3FCFD0FFF771
:104920009BFA01A902A800F0BBFC0028D1D12046C7
:10493000FFF7F1FC0028C6D0019904F1240000F033
:1049400029FC2046FFF741FD00F034FB0028CAD1C6
:10495000054B4FF080521A60BFF34F8FBFF36F8F3C
:10496000C1E700208DE700BF04ED00E040B110B5C5
:104970000446FFF74FFAA46BFFF76EFA204610BD0E
:104980004FF0500383F31188BFF36F8FBFF34F8F46
:10499000FEE700000023072B0CD8074A52F833200B
:1049A0000AB10133F7E7044A42F8331002EBC303BC
:1049B00058607047704700BF144F002070B5044620
:1049C0000D461646FFF726FA94F844305BB2B3F171
:1049D000FF3F0DD094F845305BB2B3F1FF3F0BD0F1
:1049E000FFF73AFAA36B5BB12046FFF7EEFC70BD10
:1049F000002384F84430EDE7002384F84530EFE7E6
:104A00003246294604F1240000F0DCFBECE700000C
:104A1000084B1B681B6823B9074B4FF0FF321A6025
:104A20007047044B1B68DB68DB685A68024B1A60EE
:104A3000704700BF584F0020005400202DE9F04778
:104A400081460D4617469A46089EDDF824800A9C4A
:104A50009200A521206B00F019FF236B07F1804223
:104A6000013A03EB820727F007077DB300230F2BE2
:104A700006D8EA5CE11881F834200AB10133F6E780
:104A8000002384F84330372E00D93726E662E664E7
:104A900000252565201DFFF718F904F11800FFF720
:104AA00014F92461C6F13806A6616462656584F86C
:104AB0005850524649463846FFF780F92060B8F111
:104AC000000F01D0C8F80040BDE8F087002384F84B
:104AD0003430D8E738B50024372C08D804EB8402EA
:104AE00093000E481844FFF7E5F80134F4E70C4D45
:104AF0002846FFF7DFF80B4C2046FFF7DBF80A48A3
:104B0000FFF7D8F80948FFF7D5F80948FFF7D2F8BA
:104B1000084B1D60084B1C6038BD00BF604F002073
:104B2000D8530020EC5300200854002034540020B7
:104B300020540020584F00205C4F002010B5044640
:104B4000FFF768F9214A136801331360204B1B6893
:104B50005BB1204B1B686BB91D4B1B68DA6AE36ABB
:104B60009A4207D81A4B1C6004E0194B1C6013686A
:104B7000012B27D0184A1368013313606364E36A7A
:104B8000164A1268934201D9144A136003EB830357
:104B90009A00211D12481044FFF79AF8FFF75CF9BC
:104BA0000C4B1B686BB10A4B1B68DA6AE36A9A42CA
:104BB00007D20C4B4FF080521A60BFF34F8FBFF3F8
:104BC0006F8F10BDFFF786FFD4E700BFC0530020F2
:104BD000544F00201C540020D0530020D4530020F8
:104BE000604F002004ED00E010B5044690F8593005
:104BF00063B1012B11D0022B0ED04FF0500383F381
:104C00001188BFF36F8FBFF34F8FFEE7006BFFF785
:104C10003BFB2046FFF738FB10BDFFF735FBFBE7FA
:104C20000F4B1B68D3B110B5FFF7F4F80D4BDB68E1
:104C3000DC68201DFFF771F80B4A1368013B136015
:104C4000074A1368013B1360FFF706F92046FFF798
:104C5000CBFF034B1B68002BE6D110BD704700BF94
:104C6000C453002034540020C053002008B5FFF77F
:104C7000D7FF064B1B68012BF9D9054B4FF080522B
:104C80001A60BFF34F8FBFF36F8FF0E7604F0020C4
:104C900004ED00E070B504460E46174B1D68174B37
:104CA00018680430FFF739F8B4F1FF3F0DD02C44F9
:104CB000124B1B685C60A54210D9114B18680F4B52
:104CC00019680431FFF70FF870BD002EEFD00B4BC1
:104CD000196804310B48FEF7FBFFF5E70A4B18682B
:104CE000064B19680431FEF7FEFF084B1B68A34210
:104CF000EAD9064B1C60E7E748540020544F0020D7
:104D00005C4F002020540020584F00200054002009
:104D100070B586B00B9D0C9C75B1B4B15C26049641
:104D2000049E5C2E1AD04FF0500383F31188BFF31A
:104D30006F8FBFF34F8FFEE74FF0500383F311885F
:104D4000BFF36F8FBFF34F8FFEE74FF0500383F336
:104D50001188BFF36F8FBFF34F8FFEE7049E25636B
:104D6000022584F8595000250395029405AD01955C
:104D70000A9D0095FFF762FE2046FFF7DFFE0598CB
:104D800006B070BD2DE9F04385B00746884615464C
:104D900099469000FFF7F4F9F8B106465C20FFF75A
:104DA000EFF90446A8B10663E4B1002384F8593052
:104DB000039302940D9B01930C9B00934B462A4650
:104DC00041463846FFF73AFE2046FFF7B7FE01207E
:104DD00005E03046FFF758FAE6E74FF0FF3005B040
:104DE000BDE8F0834FF0FF30F9E7000010B588B060
:104DF00000240594069407AA06A905A8FEF742FF19
:104E0000059B0293069B019300942346079A17493A
:104E10001748FFF77DFF40B100F04EFB012806D098
:104E2000B0F1FF3F18D008B010BD0020F6E74FF0FA
:104E3000500383F31188BFF36F8FBFF34F8F0D4B78
:104E40004FF0FF321A600C4B01221A600B4B00220C
:104E50001A60FFF781F8E6E74FF0500383F31188FB
:104E6000BFF36F8FBFF34F8FFEE700BF149A0008A8
:104E70006D4C0008005400201C54002048540020B1
:104E8000024A136801331360704700BFCC530020FF
:104E9000014B1868704700BF48540020F8B53A4BE2
:104EA0001B68002B65D1394B1D6801351D60C5B9E4
:104EB000374B1B681B6843B14FF0500383F31188D5
:104EC000BFF36F8FBFF34F8FFEE7314A1168314B4D
:104ED000186810601960304A136801331360FFF7D7
:104EE00097FD2E4B1B68AB420CD900242C4B1B6842
:104EF000DB6A03EB83039A002A4B9B58012B3DD9B5
:104F000001243BE0002416E0244B4FF0FF321A60EE
:104F1000ECE7224A1360E9E703EB83039A00394682
:104F200020481044FEF7D4FEF26A1D4B1B68DB6A72
:104F30009A4200D30124164B1B681B68002BE3D058
:104F4000134B1B68DB68DE6873689D42E1D3371D35
:104F50003846FEF7E2FEB36A1BB106F11800FEF711
:104F6000DCFEF36A104A12689342D5D90E4A1360E8
:104F7000D2E70E4A13680133136000240C4B1B6800
:104F800003B101242046F8BDCC5300204854002032
:104F9000584F00205C4F0020045400200054002093
:104FA000544F0020604F0020D4530020C8530020ED
:104FB0004C54002038B5344B1B6843B94FF05003B4
:104FC00083F31188BFF36F8FBFF34F8FFEE7FEF7B8
:104FD00021FF2D4B1A68013A1A601B68002B4DD136
:104FE0002A4B1B680BB9002449E00024284B1B689E
:104FF0001BB3274BDB68DC6804F11800FEF78DFE5D
:10500000251D2846FEF789FEE36A224A126893426C
:1050100001D9204A136003EB83039A0029461E48F6
:105020001044FEF755FEE26A1C4B1B68DB6A9A428D
:10503000DCD31B4B01221A60D8E70CB1FFF7E8FC68
:10504000184B1C6874B9164B1C68C4B1164B4FF052
:1050500080521A60BFF34F8FBFF36F8F01240EE0B1
:10506000013C07D0FFF71AFF0028F9D00C4B0122B2
:105070001A60F5E70B4B00221A60E4E70024FEF704
:10508000EBFE204638BD00BFCC530020C0530020AB
:1050900008540020D4530020604F0020544F0020BB
:1050A0004C540020C853002004ED00E010B5A8B116
:1050B00004460F4B1B6843B14FF0500383F3118834
:1050C000BFF36F8FBFF34F8FFEE7FFF7D9FE0021CD
:1050D0002046FFF7DFFDFFF76DFF38B9054B4FF0B6
:1050E00080521A60BFF34F8FBFF36F8F10BD00BFA8
:1050F000CC53002004ED00E0214B1B681BB1214B79
:1051000001221A6070471F4B00221A601E4B1B6859
:1051100003EB83018A001D498A585AB90BB1013B40
:10512000F6E74FF0500383F31188BFF36F8FBFF39F
:105130004F8FFEE710B408469A00D418A10001442E
:105140004C6864684C601A449100083108448442F9
:105150000DD003EB830291000C4A0A445268D168D7
:105160000B4A1160084A13605DF8044B7047606891
:1051700003EB83029100054A0A445060E9E700BF4F
:10518000CC5300204C540020D4530020604F00200A
:10519000544F002058B110B50C46094B196818310E
:1051A000FEF7A1FD01212046FFF774FD10BD4FF071
:1051B000500383F31188BFF36F8FBFF34F8FFEE768
:1051C000544F002038B570B10C4615460A4A116894
:1051D0001831FEF77DFD0DB14FF0FF342946204612
:1051E000FFF758FD38BD4FF0500383F31188BFF32C
:1051F0006F8FBFF34F8FFEE7544F002038B5C36861
:10520000DC6824B304F118052846FEF786FD184B28
:105210001B682BBB251D2846FEF77FFDE36A154A58
:105220001268934201D9134A136003EB83039A0077
:10523000294611481044FEF74BFDE26A0F4B1B68EC
:10524000DB6A9A4211D901200D4B18600EE04FF035
:10525000500383F31188BFF36F8FBFF34F8FFEE7C7
:1052600029460848FEF734FDE7E7002038BD00BFB7
:10527000CC530020D4530020604F0020544F002016
:105280004C54002008540020034B1B680360034B60
:105290001B684360704700BF04540020485400203E
:1052A000F8B5C8B1054601B30C46FEF7B3FD1B4B7C
:1052B00019686B68C81A2268B2F1FF3F26D02F68C0
:1052C000174E3668B74201D08B4224D9824215D896
:1052D0000023236001241AE04FF0500383F3118868
:1052E000BFF36F8FBFF34F8FFEE74FF0500383F391
:1052F0001188BFF36F8FBFF34F8FFEE75B1A134424
:1053000023602846FFF7C0FF002400E00024FEF7DA
:10531000A3FD2046F8BD0124F9E700BF4854002052
:1053200004540020014B01221A6070474C540020A5
:10533000054B1B6833B1054B1B680BB10020704750
:1053400002207047012070471C540020CC530020DD
:1053500000283BD038B504461E4A1268824208D065
:105360004FF0500383F31188BFF36F8FBFF34F8F5C
:10537000FEE7026D42B94FF0500383F31188BFF38B
:105380006F8FBFF34F8FFEE7013A0265C06AE16C91
:1053900088421DD00AB1002038BD251D2846FEF7E1
:1053A000BCFCE36CE362C3F13802A2610A4A1268F2
:1053B000934201D9084A136003EB83039A002946FC
:1053C00006481044FEF784FC0120E5E70020704702
:1053D0000020E1E7544F0020D4530020604F00200C
:1053E000064B1A6813682BB90123036023B9D368ED
:1053F000186870470023F8E70020704750540020D9
:1054000008B54160006191420CD8D21A83699A4272
:1054100001D3012008BD011D094B1868FEF763FC8C
:105420000020F7E79A4201D2994206D2011D054BAE
:105430001868FEF758FC0020ECE70120EAE700BFFF
:10544000545400205054002030B583B0FEF7E2FCE5
:10545000114B1B681BB1FEF7FFFC03B030BD0F4DB5
:105460002846FEF727FC0E4C2046FEF723FC0D4B8A
:105470001D600D4B1C60002300930C4B0C4A102147
:105480000A20FFF72CF8044B18600028E3D00949E4
:10549000FFF780FADFE700BF74550020F8540020C2
:1054A0000C55002050540020545400202455002056
:1054B000585400201C9A000810B588B0FFF7C4FFAC
:1054C000124B1B68CBB100240594069407AA06A9C9
:1054D00005A8FEF7E3FB059B0293069B01930223BD
:1054E00000932346079A0A490A48FFF711FC0A4B22
:1054F000186010B1012008B010BD4FF0500383F3C5
:105500001188BFF36F8FBFF34F8FFEE774550020F4
:10551000249A00082158000878550020C0B130B501
:1055200085B015460446174A106840B31A460091E4
:105530000195029405291CDCFFF7FAFE022810D021
:1055400000231A4669460F480068FFF739F814E04F
:105550004FF0500383F31188BFF36F8FBFF34F8F6A
:10556000FEE70023089A694606480068FFF728F816
:1055700003E000236946FFF7E3F805B030BD0020E3
:10558000FBE700BF7455002070B582B01B4B1B6851
:105590001A6862B3DB681E68DC68251D2846FEF7C2
:1055A000BCFB236A2046984794F8283013F0040F78
:1055B000ECD0A36933449E4207D26360246129463C
:1055C0000E4B1868FEF78FFBE0E7002100910B46B9
:1055D00032462046FFF7A2FF0028D7D14FF05003F4
:1055E00083F31188BFF36F8FBFF34F8FFEE7044A39
:1055F000106802490860136002B070BD505400206A
:105600005454002038B50546FFF742FC0446074BCA
:105610001B68834205D800232B60044B1C60204686
:1056200038BDFFF7B1FF01232B60F6E720550020BE
:1056300070B582B005460E46174B1B68DB68DC6808
:10564000201DFEF76AFB94F8283013F0040F08D1F0
:1056500023F0010384F82830236A2046984702B0DB
:1056600070BDA1692B46324629442046FFF7C8FE8B
:105670000028F1D0002100910B462A462046FFF772
:105680004DFF0028E8D14FF0500383F31188BFF39A
:105690006F8FBFF34F8FFEE75054002070B582B07C
:1056A00006460C46FFF7ECFB01A8FFF7ABFF019B9A
:1056B00023BB05460CB9B04217D224B1114A126877
:1056C0001268CAB901242246711B0F4B1868FFF7F4
:1056D00075F9FFF76FFC98B90C4B4FF080521A60C8
:1056E000BFF34F8FBFF36F8F0AE0FFF763FC2946CC
:1056F0003046FFF79DFF03E01C46E4E7FFF75AFC46
:1057000002B070BD545400207455002004ED00E038
:1057100030B589B006E007990698059B9847049B29
:10572000002B0BDA002204A93C4B1868FFF770F835
:10573000002870D0049B002BF1DAECE7069C63692B
:1057400013B1201DFEF7E9FA03A8FFF75BFF049BE6
:10575000092BE7D8DFE803F00505053138510505C9
:10576000313894F8283043F0010384F82830059943
:10577000A5690B46024629442046FFF741FE002852
:10578000D0D0236A2046984794F8283013F0040FAD
:10579000C8D0A269002100910B460598024420461A
:1057A000FFF7BCFE0028BDD14FF0500383F31188F2
:1057B000BFF36F8FBFF34F8FFEE794F8283023F0CD
:1057C000010384F82830ADE794F8283043F0010352
:1057D00084F828300599A16131B10346024601449D
:1057E0002046FFF70DFE9DE74FF0500383F311882D
:1057F000BFF36F8FBFF34F8FFEE794F8283013F09D
:10580000020F04D023F0010384F828308AE72046F1
:10581000FEF73AFD86E709B030BD00BF74550020A1
:1058200000B583B001A8FFF7DBFD0199FFF736FF54
:10583000FFF76EFFF6E70000014B1868704700BFE6
:105840008000002070B50D4E0D4D761BB61006D0B1
:105850000024013455F8043B9847A642F9D1094E7B
:10586000094D761B04F03AF8B61006D00024013436
:1058700055F8043B9847A642F9D170BDC09C00087A
:10588000C09C0008C89C0008C09C0008F0B48607B3
:1058900046D0541E002A3CD0CAB2034602E014F19E
:1058A000FF3436D303F8012B9D07F8D1032C29D9F7
:1058B000CDB245EA05250F2C45EA054533D9A4F1BB
:1058C0001006360903F1200707EB061703F1100253
:1058D00042E9045542E902551032BA42F8D1721C2D
:1058E00014F00C0F03EB021204F00F0613D0331F59
:1058F00023F003030433134442F8045B9342FBD1C7
:1059000006F003042CB1C9B21C4403F8011B9C42ED
:10591000FBD1F0BC704734461346002CF3D1F8E7B6
:1059200014460346C2E71A462646E0E730B59BB068
:10593000074D00916FF00044049169460594CDE94C
:10594000024500F041F8009B00221A701BB030BDE8
:105950000802FFFF10B4044C13460A4601462068B3
:105960005DF8044BFFF7E2BF80000020024B13B14B
:10597000024800F005B87047000000008D5900088B
:10598000002301461A46184601F01ABD38B50A4CE4
:105990000A4D641BA4100AD004F18043013B05EBBF
:1059A0008305013C55F804399847002CF9D1BDE82E
:1059B000384003F099BF00BFCC9C0008C89C000889
:1059C000704700BF704700BF2DE9F04FD5B00C46BF
:1059D000079193460993069002F03EFE03681593E3
:1059E0001846FBF74DFAA3891390180603D52369CF
:1059F000002B01F00E8000235E469FED957B1293F5
:105A0000CDE9293314931693CDE9183317930493F2
:105A10002BAB2893994633788DED107B002B00F04B
:105A20003382252B00F0B686354603E0252B00F0A7
:105A3000E78025466B786C1C002BF7D1A71B00F084
:105A40002382DDE9293201333A44072BC9F800608B
:105A5000C9F80470CDE9293200F3D68009F10809AC
:105A6000049A6B783A440492002B00F00D820023D4
:105A700094F8018005938DF88330029304F1010BB3
:105A80004FF0FF3A2B2720210BF1010BA8F1200347
:105A90005A2B00F26A83DFE813F06301680368039E
:105AA0005C016803680368033901680368032E0119
:105AB0002901680322011A0368033F02FE00FE0069
:105AC000FE00FE00FE00FE00FE00FE00FE00680379
:105AD000680368036803680368036803A102680336
:105AE00074017600A102A102A102680368036803A1
:105AF00068036D0168036803620068036803680354
