:020000040800F2
:1000000000000220252100088D2000088F20000814
:1000100091200008932000089520000800000000AF
:100020000000000000000000000000006143000824
:100030009720000800000000014400086544000803
:100040007521000875210008752100087521000838
:100050007521000875210008752100087521000828
:100060007521000875210008752100087521000818
:100070007521000875210008752100087521000808
:100080007521000875210008B1200008000000005B
:1000900000000000000000000000000075210008C2
:1000A00075210008992000087521000875210008B5
:1000B00075210008752100087521000875210008C8
:1000C00075210008752100087521000875210008B8
:1000D0007521000875210008752100080000000046
:1000E0007521000875210008752100080000000036
:1000F0000000000000000000000000007521000862
:100100000000000075210008752100087521000815
:1001100000000000000000000000000000000000DF
:100120007521000875210008752100087521000857
:100130007521000800000000000000000000000021
:100140000000000000000000000000007521000811
:100150007521000875210008752100087521000827
:100160007521000875210008000000000000000053
:10017000000000000000000000000000000000007F
:1001800000000000752100080000000000000000D1
:0801900075210008752100082B
:1001C00010B5054C237833B9044B13B10448AFF391
:1001D00000800123237010BD300A002000000000C1
:1001E000249E000808B5034B1BB103490348AFF335
:1001F000008008BD00000000340A0020249E000892
:1002000081F0004102E000BF83F0004330B54FEAC7
:1002100041044FEA430594EA050F08BF90EA020F34
:100220001FBF54EA000C55EA020C7FEA645C7FEAC7
:10023000655C00F0E2804FEA5454D4EB5555B8BFEA
:100240006D420CDD2C4480EA020281EA030382EA5B
:10025000000083EA010180EA020281EA0303362DED
:1002600088BF30BD11F0004F4FEA01314FF4801CC0
:100270004CEA113102D0404261EB410113F0004FD2
:100280004FEA03334CEA133302D0524263EB430389
:1002900094EA050F00F0A780A4F10104D5F1200E27
:1002A0000DDB02FA0EFC22FA05F2801841F1000182
:1002B00003FA0EF2801843FA05F359410EE0A5F156
:1002C00020050EF1200E012A03FA0EFC28BF4CF087
:1002D000020C43FA05F3C01851EBE37101F000453D
:1002E00007D54FF0000EDCF1000C7EEB00006EEB4A
:1002F0000101B1F5801F1BD3B1F5001F0CD34908D4
:100300005FEA30004FEA3C0C04F101044FEA44522A
:1003100012F5800F80F09A80BCF1004F08BF5FEAB1
:10032000500C50F1000041EB045141EA050130BD91
:100330005FEA4C0C404141EB010111F4801FA4F134
:100340000104E9D191F0000F04BF01460020B1FA89
:1003500081F308BF2033A3F10B03B3F120020CDAC1
:100360000C3208DD02F1140CC2F10C0201FA0CF09F
:1003700021FA02F10CE002F11402D8BFC2F1200C04
:1003800001FA02F120FA0CFCDCBF41EA0C019040BA
:10039000E41AA2BF01EB0451294330BD6FEA040403
:1003A0001F3C1CDA0C340EDC04F11404C4F12002EE
:1003B00020FA04F001FA02F340EA030021FA04F300
:1003C00045EA030130BDC4F10C04C4F1200220FA57
:1003D00002F001FA04F340EA0300294630BD21FA95
:1003E00004F0294630BD94F0000F83F4801306BF5B
:1003F00081F480110134013D4EE77FEA645C18BF4F
:100400007FEA655C29D094EA050F08BF90EA020FE5
:1004100005D054EA000C04BF1946104630BD91EADD
:10042000030F1EBF0021002030BD5FEA545C05D1E0
:100430004000494128BF41F0004130BD14F580041F
:100440003CBF01F5801130BD01F0004545F0FE4193
:1004500041F470014FF0000030BD7FEA645C1ABFC8
:10046000194610467FEA655C1CBF0B46024650EAFF
:10047000013406BF52EA033591EA030F41F400212B
:1004800030BD00BF90F0000F04BF0021704730B5B1
:100490004FF4806404F132044FF000054FF0000186
:1004A00050E700BF90F0000F04BF0021704730B547
:1004B0004FF4806404F1320410F0004548BF40421C
:1004C0004FF000013EE700BF42004FEAE2014FEA71
:1004D00031014FEA02701FBF12F07F4393F07F4F4C
:1004E00081F06051704732F07F4208BF704793F04F
:1004F0007F4F04BF41F40021704730B54FF4607462
:1005000001F0004521F000411CE700BF50EA010264
:1005100008BF704730B54FF000050AE050EA01020D
:1005200008BF704730B511F0004502D5404261EB7D
:1005300041014FF4806404F132045FEA915C3FF4BE
:10054000D8AE4FF003025FEADC0C18BF03325FEA5B
:10055000DC0C18BF033202EBDC02C2F1200300FA0C
:1005600003FC20FA02F001FA03FE40EA0E0021FA31
:1005700002F11444BDE600BF70B54FF0FF0C4CF41F
:10058000E06C1CEA11541DBF1CEA135594EA0C0FD1
:1005900095EA0C0F00F0DEF82C4481EA030621EA0C
:1005A0004C5123EA4C5350EA013518BF52EA033547
:1005B00041F4801143F4801338D0A0FB02CE4FF0F9
:1005C0000005E1FB02E506F00042E0FB03E54FF029
:1005D0000006E1FB03569CF0000F18BF4EF0010E21
:1005E000A4F1FF04B6F5007F64F5407404D25FEA1D
:1005F0004E0E6D4146EB060642EAC62141EA5551D0
:100600004FEAC52040EA5E504FEACE2EB4F1FD0C11
:1006100088BFBCF5E06F1ED8BEF1004F08BF5FEA8F
:10062000500E50F1000041EB045170BD06F0004641
:1006300046EA010140EA020081EA0301B4EB5C04EE
:10064000C2BFD4EB0C0541EA045170BD41F48011E6
:100650004FF0000E013C00F3AB8014F1360FDEBF0B
:10066000002001F0004170BDC4F10004203C35DAE7
:100670000C341BDC04F11404C4F1200500FA05F36A
:1006800020FA04F001FA05F240EA020001F000420B
:1006900021F0004110EBD37021FA04F642EB060181
:1006A0005EEA430E08BF20EAD37070BDC4F10C04AB
:1006B000C4F1200500FA04F320FA05F001FA04F26F
:1006C00040EA020001F0004110EBD37041F100015B
:1006D0005EEA430E08BF20EAD37070BDC4F1200566
:1006E00000FA05F24EEA020E20FA04F301FA05F2CE
:1006F00043EA020321FA04F001F0004121FA04F276
:1007000020EA020000EBD3705EEA430E08BF20EA45
:10071000D37070BD94F0000F0FD101F0004640007F
:1007200041EB010111F4801F08BF013CF7D041EA01
:10073000060195F0000F18BF704703F00046520005
:1007400043EB030313F4801F08BF013DF7D043EAD6
:100750000603704794EA0C0F0CEA135518BF95EA8C
:100760000C0F0CD050EA410618BF52EA4306D1D113
:1007700081EA030101F000414FF0000070BD50EA32
:10078000410606BF1046194652EA430619D094EABC
:100790000C0F02D150EA013613D195EA0C0F05D1A6
:1007A00052EA03361CBF104619460AD181EA0301FA
:1007B00001F0004141F0FE4141F470014FF00000B2
:1007C00070BD41F0FE4141F4780170BD70B54FF04D
:1007D000FF0C4CF4E06C1CEA11541DBF1CEA1355CD
:1007E00094EA0C0F95EA0C0F00F0A7F8A4EB0504AF
:1007F00081EA030E52EA03354FEA013100F08880A6
:100800004FEA03334FF0805545EA131343EA12636E
:100810004FEA022245EA111545EA10654FEA002623
:100820000EF000419D4208BF964244F1FD0404F5DC
:10083000407402D25B084FEA3202B61A65EB030538
:100840005B084FEA32024FF480104FF4002CB6EBF5
:10085000020E75EB030E22BFB61A754640EA0C0075
:100860005B084FEA3202B6EB020E75EB030E22BFB5
:10087000B61A754640EA5C005B084FEA3202B6EBF6
:10088000020E75EB030E22BFB61A754640EA9C00B5
:100890005B084FEA3202B6EB020E75EB030E22BF85
:1008A000B61A754640EADC0055EA060E18D04FEA43
:1008B000051545EA16754FEA06164FEAC30343EAE3
:1008C00052734FEAC2025FEA1C1CC0D111F4801FB0
:1008D0000BD141EA00014FF000004FF0004CB6E7A9
:1008E00011F4801F04BF01430020B4F1FD0C88BF48
:1008F000BCF5E06F3FF6AFAEB5EB030C04BFB6EB53
:10090000020C5FEA500C50F1000041EB045170BD45
:100910000EF0004E4EEA113114EB5C04C2BFD4EB72
:100920000C0541EA045170BD41F480114FF0000EF6
:10093000013C90E645EA060E8DE60CEA135594EA72
:100940000C0F08BF95EA0C0F3FF43BAF94EA0C0F75
:100950000AD150EA01347FF434AF95EA0C0F7FF4EA
:1009600025AF104619462CE795EA0C0F06D152EA3E
:1009700003353FF4FDAE1046194622E750EA410622
:1009800018BF52EA43067FF4C5AE50EA41047FF433
:100990000DAF52EA43057FF4EBAE12E74A0011D2E5
:1009A00012F5001211D20DD56FF47873B3EB6252C9
:1009B0000ED44FEAC12343F0004343EA505323FAD5
:1009C00002F070474FF00000704750EA013002D14A
:1009D0004FF0FF3070474FF0000070474FEA410280
:1009E000B2F1E04324BFB3F5001CDCF1FE5C0DD98D
:1009F00001F0004C4FEAC0024CEA5070B2F1004FD7
:100A000040EB830008BF20F00100704711F0804FD9
:100A100021D113F13872BCBF01F00040704741F49E
:100A200080114FEA5252C2F11802C2F1200C10FAA2
:100A30000CF320FA02F018BF40F001004FEAC12386
:100A40004FEAD32303FA0CFC40EA0C0023FA02F32A
:100A50004FEA4303CCE77FEA625307D150EA013300
:100A60001EBF4FF0FE4040F44000704701F00040D0
:100A700040F0FE4040F40000704700BF53B94AB94F
:100A8000002908BF00281CBF4FF0FF314FF0FF3096
:100A900000F074B9ADF1080C6DE904CE00F006F871
:100AA000DDF804E0DDE9022304B070472DE9F047EA
:100AB000089E04468846002B40F085808A421546F1
:100AC00048D9B2FA82F24AB1C2F1200701FA02F320
:100AD00020FA07F7954047EA030894404FEA154E7D
:100AE000230CB8FBFEF71FFA85FC0EFB178843EAC0
:100AF000084307FB0CF1994209D9EB1807F1FF30C5
:100B000080F0E380994240F2E080023F2B445B1A80
:100B1000A4B2B3FBFEF00EFB103344EA034400FB27
:100B20000CFCA44509D92C1900F1FF3380F0CB80CF
:100B3000A44540F2C88002382C4440EA0740A4EBA8
:100B40000C0400271EB1D4400023C6E900433946F7
:100B5000BDE8F087002A53D0B2FA82F2002A40F0B2
:100B6000B680491B4FEA154E1FFA85F80127B1FBE5
:100B7000FEFC230C0EFB1C1143EA014308FB0CF1A5
:100B8000994207D9EB180CF1FF3002D2994200F2DA
:100B9000EC808446591AA3B2B1FBFEF00EFB101490
:100BA00043EA044408FB00F8A04507D92C1900F1DA
:100BB000FF3302D2A04500F2DC801846A4EB080403
:100BC00040EA0C40BEE78B4208D9002E78D00027BF
:100BD000C6E9000138463946BDE8F087B3FA83F725
:100BE0007FB98B4202D3824200F2BD80841A61EB4E
:100BF000030301209846002EA9D0C6E90048A6E7C5
:100C0000FFDEC7F12005BB4022FA05FC4CEA030CCD
:100C100001FA07F420FA05F821FA05F34FEA1C4E11
:100C200048EA0404B3FBFEF9210C0EFB19331FFA4A
:100C30008CF841EA034309FB08FA9A4502FA07F2E5
:100C400000FA07F10BD91CEB030309F1FF3080F028
:100C500088809A4540F28580A9F102096344A3EB9C
:100C60000A03A4B2B3FBFEF00EFB103344EA0344C4
:100C700000FB08F8A04508D91CEB040400F1FF3381
:100C80006BD2A04569D90238644440EA0940A4EB1C
:100C90000804A0FB02894C45C6464B4654D351D0AC
:100CA000002E69D0B1EB0E0264EB030404FA05F5E3
:100CB00022FA07F3FC401D43C6E90054002746E72B
:100CC0003746304643E7184637E707461FE7C2F185
:100CD000200320FA03F7954001FA02F021FA03F30A
:100CE0004FEA154E3843010CB3FBFEF71FFA85F8A7
:100CF0000EFB173341EA034107FB08F38B4204FA6A
:100D000002F407D9691807F1FF3C28D28B4226D993
:100D1000023F2944CB1A81B2B3FBFEF00EFB103325
:100D200041EA034100FB08F38B4207D9691800F13F
:100D3000FF3C10D28B420ED902382944C91A40EA2E
:100D4000074714E74145ABD2B8EB020E69EB0C0242
:100D500001381346A4E76046F0E7184695E7674672
:100D6000D8E781467BE7384645E7ACF1020C2B44D7
:100D700010E702382C4421E73746E8E6704700BF09
:100D8000844641EA000313F003036DD1403A41D396
:100D900051F8043B40F8043B51F8043B40F8043B55
:100DA00051F8043B40F8043B51F8043B40F8043B45
:100DB00051F8043B40F8043B51F8043B40F8043B35
:100DC00051F8043B40F8043B51F8043B40F8043B25
:100DD00051F8043B40F8043B51F8043B40F8043B15
:100DE00051F8043B40F8043B51F8043B40F8043B05
:100DF00051F8043B40F8043B51F8043B40F8043BF5
:100E000051F8043B40F8043B51F8043B40F8043BE4
:100E1000403ABDD2303211D351F8043B40F8043B84
:100E200051F8043B40F8043B51F8043B40F8043BC4
:100E300051F8043B40F8043B103AEDD20C3205D394
:100E400051F8043B40F8043B043AF9D2043208D08C
:100E5000D2071CBF11F8013B00F8013B01D30B88FE
:100E600003806046704700BF082A13D38B078DD0DC
:100E700010F003038AD0C3F10403D21ADB071CBFAE
:100E800011F8013B00F8013B80D331F8023B20F818
:100E9000023B7BE7043AD9D3013A11F8013B00F851
:100EA000013BF9D20B7803704B7843708B788370D9
:100EB00060467047000000000000000000000000D5
:100EC00090F800F06DE9024520F007016FF0000C8A
:100ED00010F0070491F820F040F049804FF0000432
:100EE0006FF00700D1E9002391F840F000F108000D
:100EF00082FA4CF2A4FA8CF283FA4CF3A2FA8CF345
:100F00004BBBD1E9022382FA4CF200F10800A4FAAB
:100F10008CF283FA4CF3A2FA8CF3E3B9D1E90423FF
:100F200082FA4CF200F10800A4FA8CF283FA4CF336
:100F3000A2FA8CF37BB9D1E9062301F1200182FAF0
:100F40004CF200F10800A4FA8CF283FA4CF3A2FAF6
:100F50008CF3002BC6D0002A04BF04301A4612BA04
:100F6000B2FA82F2FDE8024500EBD2007047D1E907
:100F7000002304F00305C4F100004FEAC50514F096
:100F8000040F91F840F00CFA05F562EA05021CBF67
:100F900063EA050362464FF00004A9E70000000081
:100FA00001F0FF01102A2BDB10F0070F08D010F81A
:100FB000013B013A8B422DD010F0070F42B3F6D11E
:100FC000F0B441EA012141EA014122F007047FF037
:100FD00000070023F0E80256083C85EA010586EA8E
:100FE000010685FA47F5A3FA87F586FA47F6A5FACA
:100FF00087F68EB9EED1F0BC01F0FF0102F00702D6
:1010000032B110F8013B013A83EA010313B1F8D180
:101010000020704701387047002D06BF3546033861
:10102000073815F0010F07D1013015F4807F02BF9A
:10103000013015F4C03F0130F0BC0138704700BFEB
:101040004FF0FF3C06E000BF4FF0010C02E000BF94
:101050004FF0010C4DF804CD4FEA410C7FEA6C5C77
:101060004FEA430C18BF7FEA6C5C1BD001B050EA1A
:10107000410C0CBF52EA430C91EA030F02BF90EA05
:10108000020F0020704710F1000F91EA030F58BFC4
:10109000994208BF90422CBFD8176FEAE37040F026
:1010A000010070474FEA410C7FEA6C5C02D150EAC4
:1010B000013C07D14FEA430C7FEA6C5CD6D152EA7F
:1010C000033CD3D05DF8040B704700BF8446104644
:1010D00062468C461946634600E000BF01B5FFF743
:1010E000B7FF002848BF10F1000F01BD4DF808ED13
:1010F000FFF7F4FF0CBF012000205DF808FB00BFE4
:101100004DF808EDFFF7EAFF34BF012000205DF83D
:1011100008FB00BF4DF808EDFFF7E0FF94BF01208A
:1011200000205DF808FB00BF4DF808EDFFF7CEFF8B
:1011300094BF012000205DF808FB00BF4DF808EDCA
:10114000FFF7C4FF34BF012000205DF808FB00BF9B
:101150004FEA410C7FEA6C5C02D150EA013C0AD1B3
:101160004FEA430C7FEA6C5C02D152EA033C02D1A5
:101170004FF0000070474FF0010070474FEA410206
:1011800012F5001215D211D56FF47873B3EB6252D9
:1011900012D94FEAC12343F0004343EA505311F000
:1011A000004F23FA02F018BF404270474FF0000092
:1011B000704750EA013005D111F0004008BF6FF0D0
:1011C000004070474FF00000704700BF08B5094865
:1011D000094B0360094B436000238360C3604FF4F5
:1011E0008042026143618361C361036201F008FED2
:1011F00008BD00BFA40A002000540040A0860100E2
:1012000070B584B0002500950195029503950F4CAB
:101210000F4B23606560A5602561257684F820501A
:10122000E5620C4BA362E5600126E66184F830506C
:101230006661204601F066F803230093019602954B
:101240006946204601F0BAF904B070BD5C0A00207E
:10125000002001400100000FF0B587B002F0A6FCAD
:10126000214BA3FB0030800C204F3860204E4FF004
:101270008043336000240294039404940594009402
:1012800001943B6873604FF47A73F360B460304646
:1012900002F032FE4FF48053029302A9304602F06E
:1012A00051FE009401946946304602F0B9FE114D9A
:1012B000114B2B603B68013B6B604FF6FF73EB609B
:1012C000AC60284602F018FE02A9284602F03AFE59
:1012D0006946284602F0A4FE304602F0ECFC28469F
:1012E00002F0D7FC07B0F0BD83DE1B43580A002094
:1012F000F80A0020380B00200040014008B50268C1
:10130000034B9A4200D008BD00F050FFFBE700BF3E
:101310000044014008B501F0A5F8044B186080B204
:1013200000F0E2FA024B187008BD00BF540A00201A
:10133000780B0020002809DD054B1A680023536252
:101340000138536AB3F57A7FFBD3F3E7704700BFE8
:10135000380B002082B0ADF80600064B1968002358
:101360004B624A6ABDF806309BB29A42F9D302B08A
:10137000704700BF380B002030B595B030220021F7
:1013800008A804F027FD002403940494059406940F
:10139000079401941B4B1A6C42F080521A641B6C28
:1013A00003F080530193019B0294174B1A6842F497
:1013B00040421A601B6803F440430293029B0123DE
:1013C00008934FF48033099302250E954FF4800360
:1013D0000F930423109364231193129508231393FE
:1013E00008A802F0D3F80F230393049505944FF453
:1013F000805306930793032103A802F027FB15B03F
:1014000030BD00BF003802400070004010B500F051
:10141000B3FEFFF7B1FF00F0B3FAFFF71DFFFFF7D0
:10142000D5FEFFF719FFFFF7EBFE064C204600F054
:1014300093F800F05DF9204600F0FCF9112000F06F
:1014400097F910BDA40A002008B500F0E5F808BD22
:101450000FB408B5029800F0F5F8BDE8084004B0F4
:10146000704708B500F040F908BD08B500F0F6F97E
:1014700008BD0000014B93ED000A70474C0A0020A4
:10148000014B93ED010A70474C0A0020014B18787C
:10149000704700BF780B002008B5024800F05EFFDF
:1014A00008BD00BF5C0A002008B5024800F0F6FA4B
:1014B00008BD00BF4C0A002000B585B00301DBB2B7
:1014C00000F0F00040F00C028DF80C2040F0080015
:1014D0008DF80D0043F00C028DF80E2043F0080348
:1014E0008DF80F30C8230093042303AA0449097818
:1014F0000448006801F060FD05B05DF804FB00BF22
:10150000790B00207C0B002000B585B00301DBB215
:1015100000F0F00040F00D028DF80C2040F00900C2
:101520008DF80D0043F00D028DF80E2043F00903F5
:101530008DF80F30C8230093042303AA04490978C7
:101540000448006801F038FD05B05DF804FB00BFF9
:10155000790B00207C0B002010B504463220FFF7E9
:10156000E9FE2B4B1C604FF4FA7305224E212046F6
:1015700001F042FFE8BB274B4E221A702D20FFF7E7
:10158000D9FE3020FFF798FF0520FFF7D3FE30206B
:10159000FFF792FF0120FFF7CDFE3020FFF78CFF11
:1015A0000820FFF7C7FE2020FFF786FF0820FFF77F
:1015B000C1FE2820FFF780FF0120FFF7BBFE0820B7
:1015C000FFF77AFF0120FFF7B5FE0120FFF774FF58
:1015D0000320FFF7AFFE0620FFF76EFF0120FFF7A5
:1015E000A9FE0C20FFF768FF0320FFF7A3FE0120F0
:1015F00010BD4FF4FA7305227E210548006801F002
:10160000FBFE18B9034B7E221A70B7E70020EFE704
:101610007C0B0020790B002008B501F00F0120B9E8
:1016200041F08000FFF748FF08BD41F0C000FFF720
:1016300043FFF9E708B50120FFF73EFF0320FFF75E
:1016400079FE08BD0FB410B586B008AA52F8041B85
:10165000009201A804F022FC002401A8FFF730FC4E
:1016600084420AD20F2C08D806AB234413F8140C7A
:10167000FFF74AFF0134E4B2EFE706B0BDE81040DF
:1016800004B0704738B50D4600F00700C00040F0C8
:101690004000FFF711FF002403E0285DFFF734FF4F
:1016A0000134072CF9DD38BD10B5002406E00549EA
:1016B00001EBC401E0B2FFF7E5FF0134072CF6DDD2
:1016C00010BD00BF0000002010B50024052C07DC71
:1016D000044901EBC401E0B2FFF7D4FF0134F5E7A0
:1016E00010BD00BF4000002008B5FFF70DFF08BD8A
:1016F00038B5FFF79FFFFFF7E7FF00210846FFF728
:101700008BFF0E48FFF79EFF002500E001350F2DEF
:101710000EDC0024052CF9DCE9B20120FFF77CFF88
:10172000E0B2FFF7E1FF0A20FFF704FE0134F1E722
:10173000FFF780FFFFF7B8FF38BD00BF409E0008ED
:1017400000B585B007238DF80F300A2300930123DD
:101750000DF10F0246210548006801F02DFC0346FB
:1017600000B10123184605B05DF804FB840B00208E
:1017700000B585B08DF80F00030901D1430918D0D9
:1017800010F00C0F04D00123184605B05DF804FBDF
:10179000094B18700A23009301230DF10F02462113
:1017A0000648006801F008FC03460028ECD001233D
:1017B000EAE70123E8E700BF800B0020840B00204C
:1017C000A0F11F03DBB2DF2B02D9012318467047BB
:1017D00000B585B0154B1870430943F040038DF8F0
:1017E0000C3000F01F0040F060008DF80D000A235F
:1017F0000093012303AA46210D48006801F0DCFB99
:1018000020B10123184605B05DF804FB0A230093BC
:1018100001230DF10D0246210548006801F0CCFBC3
:1018200003460028EED00123ECE700BF810B002027
:10183000840B002008B5084B1860FFF781FF10B13A
:101840000123184608BD4520FFF7BAFF03460028CC
:10185000F7D00123F5E700BF840B002010B584B05A
:1018600004460A230093022303AA4621194800686C
:1018700001F05AFC18B10122104604B010BD024616
:101880009DF80C109DF80D3043EA012307EE903AC5
:10189000F8EEE77A104B1B78452B09D007EE103A8B
:1018A000B8EE477A9FED0D6AC6EE076A67EEA67A34
:1018B0000B4B1B78212B01D0112B03D1B6EE007AF4
:1018C00067EE877ADFED076A87EEA67A84ED007A05
:1018D000D2E700BF840B0020810B002000008A4269
:1018E000800B00209A99993F08B5B0F5805F06D229
:1018F00040F63403984204D840F6350001E040F643
:10190000FF70FEF7CFFD0AA3D3E90023FEF77CFCAE
:1019100009A3D3E90023FEF72FFE00220023FEF7E0
:1019200075FCFFF73BF8C0B208BD00BFAFF3008005
:101930000000000000FEAF40A09A816A06AAA9BF7D
:1019400000B587B00023039305930191012302930F
:101950000323049301A900F059FF07B05DF804FBCD
:1019600000B587B0002302930593019101230393EF
:101970000323049301A900F049FF07B05DF804FBBD
:1019800000B583B000230193084B1A6B42F00102AB
:101990001A631B6B03F001030193019B01210448AF
:1019A000FFF7DEFF03B05DF804FB00BF0038024024
:1019B0000000024010B50B4C01212046FFF7C0FF8C
:1019C00000220121204600F0FAFF4FF49660FFF755
:1019D000C1FC01212046FFF7C3FF1E20FFF7BAFC20
:1019E00010BD00BF0000024038B501210E4800F0D4
:1019F000DFFF58B1002540F6FF7401210A4800F0CE
:101A0000D7FF78B174B1013CA4B2F6E75020FFF7DC
:101A1000A1FC0121044800F0CBFF08B10125EAE751
:101A2000FF25E8E7284638BD0000024070B50026D3
:101A300040F6FF7435462AE0013CA4B20121164865
:101A400000F0B6FF08B9002CF6D12320FFF782FC86
:101A50000121114800F0ACFF80B9C5F10702012354
:101A6000934026EA030640F6FF7401210A4800F07D
:101A70009FFF50B14CB1013CA4B2F6E7C5F107029B
:101A8000012393403343DEB2EDE70135EDB2072D7C
:101A9000D4D9304670BD00BF000002402DE9F041AE
:101AA0000546FFF787FFFFF79FFF214B1870FFF7F1
:101AB000BDFFDFF8948088F80000FFF7B7FF1D4FE7
:101AC0003870FFF7B3FF1C4E3070FFF7AFFF1B4CB1
:101AD0002070FFF7ABFF80B2194B188098F80030E8
:101AE0003A781344317851FA83F3227852FA83F327
:101AF000DBB2984201D0BDE8F08142EA0120FEF756
:101B0000D1FC00220F4BFEF761FEFEF767FF286055
:101B100098F800003B7843EA0020FEF7C3FC00225F
:101B2000084BFEF753FEFEF759FF6860E3E700BF7E
:101B3000880B00208A0B00208E0B00208F0B0020CA
:101B40008C0B002000002440890B002000B583B0DE
:101B50000023019301A8FFF788FC00234FF4FA72D9
:101B600001A90448006802F0E3FF642003F042FD8D
:101B7000F0E700BF940B002000B583B0124B019337
:101B8000009302F0FFFBFFF78FFC02F01DFCFFF754
:101B900071FC8DED010AFFF773FC8DED000A002347
:101BA0004FF4FA7201A90948006802F0C1FF00234E
:101BB0004FF4FA7269460648006802F0B9FF4FF424
:101BC0007A7003F017FDDCE7000020419C0B002039
:101BD000900B002008B5FFF75FFC4FF4FA7003F09C
:101BE00009FDF8E708B5FFF711FC02F057FA0022EB
:101BF0000421642002F075FF174B186000220421B5
:101C0000642002F06EFF154B18600022042164204E
:101C100002F067FF124B1860124A0021124802F0CE
:101C20007FFA124B1860124A0021124802F078FA2B
:101C3000114B1860114A0021114802F071FA114B42
:101C40001860114A0021114802F06AFA104B18601E
:101C500002F042FAFEE700BF9C0B0020900B002030
:101C6000940B0020A49E0008891D0008A00B0020F2
:101C7000C89E00084D1B0008A40B0020809E000891
:101C8000791B0008980B0020EC9E0008D51B00086B
:101C9000A80B002010B510EE104A0A210120FFF712
:101CA000D3FB0020FFF7DDFB2046FEF70DFC0246CC
:101CB0000B460248FFF7CCFB10BD00BF509E00084A
:101CC00010B582B010EE104A00210846FFF7A4FCC0
:101CD0000120FFF709FD2046FEF7F6FBDF23009306
:101CE00002460B460248FFF7ADFC02B010BD00BF34
:101CF000689E000810B5044603210120FFF78CFC04
:101D0000252221460348FFF79DFC0348FFF79AFC74
:101D100010BD00BF749E00087C9E000800B52DED2C
:101D2000028B83B0B0EE408ADFED137AB4EEE70A9F
:101D3000F1EE10FA01DB9FED118AB5EEC08AF1EEEB
:101D400010FA16D907210020FFF766FC0220FFF7E2
:101D5000CBFC18EE100AFEF7B7FB252300930246D2
:101D60000B460748FFF76EFC03B0BDEC028B5DF835
:101D700004FB9FED048AE5E70000C8420000C6426C
:101D80005C9E00080000000000B585B000230393AE
:101D9000029301932AE000211E4B186802F004FE12
:101DA0009DED030AFFF78CFF29E000211A4B18680C
:101DB00002F0FAFD9DED020AFFF7B0FF174B18681D
:101DC00068B1002201A902F0DBFF40B10021134BF2
:101DD000186802F0E9FD9DED010AFFF75BFFFFF7D0
:101DE00055FBFFF787FF642003F004FC094B1868DC
:101DF00028B1002203A902F0C3FF0028CBD1064B73
:101E000018680028DAD0002202A902F0B9FF0028E1
:101E1000D4D0CAE79C0B0020900B0020940B00202C
:101E200000B583B0002200920D4B596C41F4804103
:101E30005964596C01F48041009100990192196C28
:101E400041F0805119641B6C03F080530193019B96
:101E50000F216FF0010000F097FC03B05DF804FB68
:101E60000038024010B588B0002303930493059313
:101E700006930793026803F1804303F590339A4277
:101E800001D008B010BD0024019403F58C335A6CC6
:101E900042F480725A645A6C02F480720192019A80
:101EA00002941A6B42F001021A631B6B03F00103E8
:101EB0000293029B082303930323049303A9064878
:101EC00000F0A4FC22462146122000F05DFC122006
:101ED00000F08EFCD5E700BF0000024030B589B0AD
:101EE0000023039304930593069307930268154B0D
:101EF0009A4201D009B030BD00250195124C236BE8
:101F000043F002032363236B03F002030193019B5D
:101F10004FF41073039312230493012305930323B7
:101F200006930423079303A9084800F06FFC029569
:101F3000236C43F400132364236C03F40013029313
:101F4000029BD7E7005400400038024000040240E2
:101F500000B58BB00023059306930793089309936C
:101F60000368274A934208D0B3F1804F19D0254A1D
:101F7000934238D00BB05DF804FB00210191224B55
:101F80005A6C42F001025A645B6C03F00103019346
:101F9000019B0A46192000F0F7FB192000F028FCED
:101FA000E8E70021029103F50E331A6C42F00102BA
:101FB0001A641A6C02F001020292029A03911A6BDF
:101FC00042F001021A631B6B03F001030393039BAE
:101FD00020230593022306930123099305A90B48A7
:101FE00000F014FCC6E700230493074B5A6C42F43C
:101FF00080325A645B6C03F480330493049BB9E72A
:102000000000014000400140003802400000024052
:1020100010B588B000220146192000F0B5FB192048
:1020200000F0E6FB00240194144B5A6C42F4003299
:102030005A645B6C03F400330193019B02A903A86B
:1020400001F0DAFD01F0C8FD43000D48A0FB0323B9
:102050009B0C013B0B480C4A026040F2E732C26025
:1020600043600461846001F047FF10B1012008B0B3
:1020700010BD044801F01FFEF9E700BF0038024020
:1020800083DE1B43EC0B0020004401407047FEE759
:10209000FEE7FEE7FEE7704708B5034801F020FEC3
:1020A000024801F01DFE08BDAC0B0020EC0B002027
:1020B00008B5024800F0DBF908BD00BF5C0A00204B
:1020C00010B503460C4A0D490D48006840B10C4854
:1020D00000680344521A934206D8094A136010BD9F
:1020E0000748084C0460F2E703F04AFE0C23036043
:1020F0004FF0FF30F3E700BF0000022000040000B3
:102100002C0C0020D8550020054BD3F8882042F431
:102110007002C3F888204FF000629A60704700BFD9
:1021200000ED00E0DFF834D0002103E00C4B5B58F9
:10213000435004310B480C4B42189A42F6D30B4AD9
:1021400002E0002342F8043B094B9A42F9D3FFF71F
:10215000DBFF03F01BFEFFF745FD70470000022088
:1021600014A2000800000020300A0020300A0020DD
:10217000D4550020FEE7000008B50B4B1A6842F466
:1021800000721A601A6842F480621A601A6842F497
:1021900080721A60032000F0E5FA0020FFF738FF94
:1021A000FFF73EFE002008BD003C0240034A1168D4
:1021B000034B1B780B441360704700BF300C0020AA
:1021C00074000020014B1868704700BF300C0020DD
:1021D0004A4B5A6822F440325A605A6841680A43AE
:1021E0005A600268536823F480735360026853682E
:1021F000016943EA012353600268536823F0407386
:1022000053600268536881680B43536002689368A7
:1022100023F40063936002689368C1680B43936082
:10222000826A374B9A4257D00268936823F07063F2
:10223000936002689368816A0B43936002689368B5
:1022400023F04053936002689368C16A0B43936024
:102250000268936823F00203936002689368017E2A
:1022600043EA4103936090F82030002B3FD002688E
:10227000536843F4006353600268536823F4604377
:10228000536001684B68426A013A43EA42334B604B
:102290000268D36A23F47003D3620168CB6AC2690F
:1022A000013A43EA0253CB620268936823F4007355
:1022B00093600268936890F8301043EA412393607A
:1022C0000268936823F480639360026893684169AD
:1022D00043EA8123936070470268936823F0706338
:1022E00093600268936823F040539360B0E70268FC
:1022F000536823F400635360CAE700BF0023014022
:102300000100000F38B310B50446036C43B1236CD1
:1023100013F0100F0BD00120002384F83C3010BDC7
:10232000FFF7A0FD0023636484F83C30EFE7236CE3
:1023300023F4885323F0020343F00203236420466E
:10234000FFF746FF00206064236C23F0030343F093
:1023500001032364E0E701207047000082B00023FE
:10236000019390F83C30012B6AD0012380F83C3077
:1023700003689A6812F0010F12D19A6842F00102C4
:102380009A60344B1B68344AA2FB03239B0C03EB7B
:1023900043030193019B1BB1019B013B0193F9E7AF
:1023A0000268936813F0010F4CD0036C23F4E063D0
:1023B00023F0010343F480730364536813F4806FC4
:1023C00005D0036C23F4405343F480530364036C3F
:1023D00013F4805F21D0436C23F006034364002391
:1023E00080F83C3003686FF022021A60026853687C
:1023F00043F0806343F020035360184B5B6813F095
:102400001F0F0DD103689A6812F0405F1DD19A68C2
:1024100042F080429A60002015E000234364DEE72A
:1024200003680F4A934201D000200CE09A6812F032
:10243000405F0CD19A6842F080429A60002002E02E
:10244000022000E0002002B070470020FBE70020DF
:10245000F9E700BF7000002083DE1B43002301402A
:10246000002001400368D86C70477047704738B54A
:10247000044602681168536811F0020F2FD003F070
:10248000200363B3036C13F0100F03D1036C43F408
:1024900000730364936813F0405F19D1237EBBB9C6
:1024A000D36A13F4700F03D0936813F4806F0FD1C5
:1024B000536823F020035360236C23F48073236458
:1024C000236C13F4805F03D1236C43F00103236476
:1024D0002046FEF71FFF23686FF012021A60236880
:1024E00019685A6802F0800211F0040F36D0002AF1
:1024F00034D0226C12F0100F03D1226C42F400523F
:1025000022649A6812F4401F21D19A6B12F4401F82
:1025100003D09A6812F4806F19D15A6812F4806F50
:1025200015D19A6812F0405F11D1227E7AB95A68AB
:1025300022F080025A60236C23F480532364236CBE
:1025400013F4807F03D1236C43F0010323642046FE
:1025500000F006F923686FF00C021A602268116817
:10256000536803F0400311F0010F04D01BB113684E
:1025700013F0010F09D122681168536803F08063DA
:1025800011F0200F00D063B938BD236C43F48033C1
:1025900023642046FFF769FF23686FF001021A6089
:1025A000E9E7636C43F0020363646FF02005156094
:1025B0002046FFF75BFF23681D60E5E730B482B07B
:1025C0000023019390F83C30012B00F0BC800123E4
:1025D00080F83C300B68092B3ED90568EA689BB24D
:1025E00003EB43031E3B072404FA03F322EA03032D
:1025F000EB600568EA688C680B8803EB43031E3BBD
:1026000004FA03F31343EB604B68062B3AD80568D2
:102610006A6B03EB8303053B1F2404FA03F322EAEE
:1026200003036B6305686A6B4B6803EB8303053B2D
:102630000C8804FA03F313436B630268434B9A421A
:1026400050D00268414B9A4259D0002380F83C3068
:10265000184602B030BC704705682A699BB203EB8C
:102660004303072404FA03F322EA03032B610568FA
:102670002A698C680B8803EB430304FA03F31343C2
:102680002B61C1E70C2B16D805682A6B03EB83037B
:10269000233B1F2404FA03F322EA03032B63056898
:1026A0002A6B4B6803EB8303233B0C8804FA03F388
:1026B00013432B63C1E70568EA6A03EB8303413BDD
:1026C0001F2404FA03F322EA0303EB620568EA6AB3
:1026D0004B6803EB8303413B0C8804FA03F3134379
:1026E000EB62AAE70B68122BABD1194B5A6822F4A4
:1026F00000025A605A6842F480025A60A1E70B68EF
:10270000144A934201D0112B9FD1114B5A6822F4E5
:1027100080025A605A6842F400025A600A680D4BFF
:102720009A4292D10C4B1B680C4AA2FB03239B0CD0
:1027300003EB83035A000192019B002B85D0019B80
:10274000013B0193F8E7022083E700BF002001402E
:1027500000230140120000107000002083DE1B43A4
:1027600070470000074AD36823F4E0631B041B0C86
:10277000000200F4E060184340F0BF6040F4003015
:10278000D060704700ED00E030B4174BDB68C3F356
:102790000223C3F10704042C28BF04241D1D062DA9
:1027A00001D9033B00E000234FF0FF3505FA04F4A4
:1027B00021EA0401994005FA03F322EA03031943CD
:1027C000002809DB0901C9B200F1604000F5614051
:1027D00080F8001330BC704700F00F000901C9B247
:1027E000024B1954F6E700BF00ED00E014ED00E0E5
:1027F000002807DB00F01F02400901239340024A32
:1028000042F82030704700BF00E100E000230F2BAA
:1028100000F2C480F0B583B039E0042200E0002269
:10282000B2403A4302355E4E46F825205D4A1568AF
:10283000E24302EA05064F6817F4803F01D044EAFC
:102840000506584D2E606D6802EA05064F6817F4BC
:10285000003F01D044EA0506524D6E60AD6802EAC1
:1028600005064F6817F4801F01D044EA05064D4D58
:10287000AE60ED682A404E6816F4001F01D044EAAD
:102880000502484CE26001330F2B00F285800122E3
:102890009A400C681440A242F5D14D686E1E012E7C
:1028A00003D9112D01D0122D12D186685F000325A6
:1028B000BD4026EA0506CD68BD40354385604668C3
:1028C00026EA02064D68C5F300129A403243426080
:1028D000C5685F000322BA40D24315408E68BE40EF
:1028E0002E43C6604D68022D01D0122D13D1DE0893
:1028F000083650F826E003F007054FEA850C0F254F
:1029000005FA0CF52EEA050E0D6905FA0CF545EAF7
:102910000E0540F8265005682A404D6805F003056D
:10292000BD402A4302604A6812F0805FABD00022AB
:1029300001921D4A556C45F480455564526C02F471
:1029400080420192019A9D08AE1C154A52F82670E9
:1029500003F0030296000F22B24027EA0207134A4F
:1029600090423FF45CAF02F5806290420ED002F5D7
:10297000806290420CD002F5806290420AD002F54B
:10298000806290423FF449AF072249E7012247E7BE
:10299000022245E7032243E703B0F0BD704700BFC2
:1029A00000380140003C0140003802400000024075
:1029B0000369194201D001207047002070470AB115
:1029C0008161704709048161704703685A6912F494
:1029D000806F01D1002070476FF480625A6100233C
:1029E0000363202280F83D2080F83E30026C42F0E4
:1029F0000402026480F83C3001207047F8B50646B6
:102A00000C4617461D4622E0FFF7DCFB069BC01A6A
:102A1000A84200D8DDB900233363202286F83D2088
:102A200086F83E30326C42F02002326486F83C3048
:102A300001201AE033689B6924EA03039BB2B3FACE
:102A400083F35B099F420FD1B5F1FF3FDCD1C4F3A3
:102A50000743012BEED133685B6924EA03039BB281
:102A6000B3FA83F35B09EDE70020F8BDF8B504463F
:102A70000D4616461F463CE01A6842F400721A6082
:102A800023686FF480625A6100232363202284F854
:102A90003D2084F83E30226C42F00402226484F827
:102AA0003C30012033E0FFF78DFBC01BB04200D863
:102AB000FEB900232363202284F83D2084F83E30B1
:102AC000226C42F02002226484F83C3001201EE097
:102AD00023689B6925EA03039BB2003318BF0123D7
:102AE000A3B123685A6912F4806FC5D1B6F1FF3FD4
:102AF000D9D1C5F30743012BEAD123685B6925EAE5
:102B000003039BB2003318BF0123E9E70020F8BD9F
:102B1000F0B583B004460D4616461F46C36A082B1F
:102B20000DD0012B0BD013F5803F08D0036B122B77
:102B30000AD10268136843F48073136004E02268CA
:102B4000136843F4807313600097334600224FF0FC
:102B500001112046FFF752FF90B92369B3F5804F6A
:102B600018D1236805F0FE051D613B463246144925
:102B70002046FFF77BFF034600BB184603B0F0BDBD
:102B800023681B6813F4807F02D04FF40073236422
:102B90000323F2E7EB11226803F0060343F0F0038E
:102BA00013613B46324607492046FFF75FFF18B9DD
:102BB0002368EDB21D61D8E70123DEE70123DCE7DE
:102BC00002000100080001002DE9F04184B0044634
:102BD0000D4616461F46C26A01680B6843F48063BF
:102BE0000B60082A0DD0012A0BD012F5803F08D0C7
:102BF000036B112B0AD10268136843F480731360CE
:102C000004E02268136843F480731360009733462E
:102C100000224FF001112046FFF7F0FEA8B923690A
:102C2000B3F5804F1BD1236845F00105EDB21D615E
:102C30003B4632462B492046FFF718FF0346002843
:102C40004DD1184604B0BDE8F08123681B6813F429
:102C5000807F02D04FF4007323640323F1E74FEA2F
:102C6000E51808F00608236848F0F0021A613B46B0
:102C700032461D492046FFF7F9FE08B10123E0E77F
:102C80002368EDB21D613B46324616492046FFF7E8
:102C9000EDFE08B10123D4E70022039223685969AD
:102CA0000391996903910399196841F4807119603E
:102CB000009733464FF001112046FFF79FFE20B9E1
:102CC000226848F0F1031361B2E723681B6813F42C
:102CD000807F02D04FF4007323640323B1E7012304
:102CE000AFE700BF020001000800010070B5044614
:102CF0000D46164623685B6913F0800F1CD12046F1
:102D0000FFF763FED0B9B5F1FF3FF3D0FFF75AFAF2
:102D1000801BA84201D8002DECD100232363202280
:102D200084F83D2084F83E30226C42F02002226478
:102D300084F83C30012000E0002070BD0120FCE759
:102D400070B504460D46164623685B6913F0040F00
:102D50001CD12046FFF739FED0B9B5F1FF3FF3D0C3
:102D6000FFF730FA801BA84201D8002DECD10023D8
:102D70002363202284F83D2084F83E30226C42F008
:102D80002002226484F83C30012000E0002070BD65
:102D90000120FCE770B505460C4616462B685A69BB
:102DA00012F0400F29D15A6912F0100F15D1FFF718
:102DB00009FA801BA04201D8002CEFD100232B631D
:102DC000202285F83D2085F83E302A6C42F0200212
:102DD0002A6485F83C30012070BD6FF010025A6102
:102DE00000232B63202285F83D2085F83E302A6C95
:102DF0002A6485F83C300120EEE70020ECE7000073
:102E0000002800F0CB80F8B5044690F83D30002B48
:102E100076D0242384F83D302268136823F0010320
:102E200013602268136843F4004313602268136838
:102E300023F40043136000F0BFFE6268594B9A42CE
:102E400063D8594B98428CBF00230123002B40F0DC
:102E5000A780564BA3FB00239B0C21684A6822F0F5
:102E60003F021A434A6025682A6A22F03F026668D8
:102E70004C498E424FD8013313432B622568E969D0
:102E800021F44F4121F0FF016368464A93424CD838
:102E900001385B00B0FBF3F0013040F6FC731842E0
:102EA00078D0C0F30B030B43EB6121680B6823F070
:102EB000C003E269206A024313430B6021688B68F8
:102EC00023F4034323F0FF032269E0680243134322
:102ED0008B602168CB6823F0FF036269A06902431D
:102EE0001343CB602268136843F001031360002092
:102EF0002064202384F83D30206384F83E00F8BD30
:102F000080F83C30FEF7EAFF83E7294B98428CBFFC
:102F1000002301239AE74FF4967101FB03F325493F
:102F2000A1FB03139B090133A6E7A268BAB9461EA9
:102F300003EB4307B6FBF7F60136C6F30B06B6FA0A
:102F400086F6760946BBC2B9421E03EB4303B2FBC9
:102F5000F3F20132C2F30B0242F40043A3E7461E30
:102F600003EB830707EB8707B6FBF7F60136C6F3DB
:102F70000B06B6FA86F67609E4E7421E03EB8303F6
:102F800003EB8303B2FBF3F20132C2F30B0242F410
:102F9000404388E7042386E7012384E70120704744
:102FA0000120ACE7A08601007F841E0083DE1B4366
:102FB000FF083D00D34D62102DE9F04184B0044676
:102FC0000E4690461F46FFF7FDF894F83D30DBB201
:102FD000202B04D00226304604B0BDE8F08105461F
:102FE0000090192301224E492046FFF707FD0028D3
:102FF00040F08F8094F83C30012B00F08C8001234E
:1030000084F83C3023681A6812F0010F03D11A6863
:1030100042F001021A602268136823F4006313600F
:10302000212384F83D30102384F83E3000232364AC
:10303000C4F824806785638D23853A4BE3622B4671
:103040000A9A31462046FFF763FD0646002864D100
:103050000023039323685A6903929B690393039B9C
:1030600011E0236C042B01D00126B4E72268136819
:1030700043F400731360F7E72A460A992046FFF7E6
:103080005FFE00282CD1238D002B34D02A460A99CC
:103090002046FFF72BFE0028E3D1626A23681278EE
:1030A0001A61616A4B1C6362638D013B9BB263854D
:1030B000238D013B9BB223852268506910F0040FD9
:1030C000DAD0002BD8D04B781361636A0133636286
:1030D000638D013B9BB26385238D013B2385CBE749
:1030E000236C042B01D0012675E72268136843F492
:1030F00000731360F7E72268136843F400731360EA
:10310000202384F83D30002384F83E3084F83C309E
:1031100061E702265FE702265DE701265BE700BF65
:10312000020010000000FFFF2DE9F04186B00446C8
:103130000E4690461F46FFF745F894F83D30DBB247
:10314000202B04D00226304606B0BDE8F0810546AB
:103150000090192301229E492046FFF74FFC0028CA
:1031600040F0348194F83C30012B00F0378101238A
:1031700084F83C3023681A6812F0010F03D11A68F2
:1031800042F001021A602268136823F4006313609E
:10319000222384F83D30102384F83E30002323643A
:1031A000C4F824806785638D23858A4BE3622B46B0
:1031B0000C9A31462046FFF707FD0646002840F0EE
:1031C0000F81238D5BB9029323685A6902929A6931
:1031D0000292029A1A6842F400721A6077E0012B98
:1031E0000FD0022B1FD02268136843F48063136052
:1031F0000023059323685A6905929B690593059BF3
:1032000065E02268136823F480631360002303934E
:1032100023685A6903929A690392039A1A6842F4DE
:1032200000721A6053E02268136823F4806313600D
:103230002268136843F40063136000230493236837
:103240005A6904929B690493049B40E02A460C99B6
:103250002046FFF79FFD002840F0C48023681A69CC
:10326000636A1A70636A01336362238D013B2385AD
:10327000638D013B9BB2638529E000950C9B002286
:1032800055492046FFF7BAFB002840F0AD80226880
:10329000136843F40073136023681A69636A1A7031
:1032A000626A531C6362238D013B2385638D013B5E
:1032B0009BB2638523681B695370636A0133636241
:1032C000238D013B2385638D013B9BB26385238D59
:1032D000002B72D0032B49D8012BB7D0022BCCD0B6
:1032E00000950C9B00223C492046FFF787FB0028F5
:1032F0007CD12268136823F48063136023681A6901
:10330000636A1A70636A01336362238D013B23850C
:10331000638D013B9BB2638500950C9B00222E4977
:103320002046FFF76BFB002862D12268136843F444
:103330000073136023681A69636A1A70626A531C07
:103340006362238D013B2385638D013B9BB26385C3
:1033500023681B695370636A01336362238D013BE9
:103360002385638D013B9BB26385B0E72A460C99A8
:103370002046FFF70FFD00283CD123681A69636AD5
:103380001A70626A531C6362238D013B2385638D2F
:10339000013B9BB263852368596911F0040F96D0F5
:1033A0001B695370636A01336362238D013B23857C
:1033B000638D013B9BB2638589E7202384F83D3010
:1033C000002384F83E3084F83C30BCE60226BAE69E
:1033D000020010000000FFFF040001000226B2E618
:1033E0000126B0E60126AEE60126ACE60126AAE6F5
:1033F0000126A8E60126A6E62DE9F04385B004469D
:10340000884691461D46FEF7DDFE94F83D30DBB25E
:10341000202B04D00223184605B0BDE8F0830646F1
:1034200000901923012258492046FFF7E7FA0028A7
:1034300040F0A18094F83C30012B00F09E800123E5
:1034400084F83C3023681A6812F0010F03D11A681F
:1034500042F001021A602268136823F400631360CB
:10346000242384F83D3000232364A3F58033E362F2
:1034700001273EE023681B6813F4807F02D04FF4DD
:10348000007323640323C6E7A02384F83D30236838
:103490005A69C2F340025969C1F3802194F83D3062
:1034A000DBB2A02B09D042B939B9FEF78BFE801BE5
:1034B000A842E9D8002DEAD1E6E7202384F83D3080
:1034C00023685A6912F0020F31D11A6842F400726F
:1034D0001A6023686FF480625A61009619230122F2
:1034E00029492046FFF78AFA00284AD101374F457B
:1034F00039D22268136843F48073136000962B4618
:1035000000224FF001112046FFF778FA0028B1D1D0
:10351000236808F0FE021A61FEF754FE064623688F
:103520005A69C2F340025969C1F38021B6E71A68AB
:1035300042F400721A600023039323685A690392CD
:103540009B690393039B0096192301220E49204691
:10355000FFF754FA034690B9202284F83D20002258
:1035600084F83C2057E7202384F83D30002384F87A
:103570003C3001234FE702234DE702234BE70123B1
:1035800049E7012347E700BF02001000002800F0D0
:10359000D98170B582B00446036813F0010F3BD0A7
:1035A000A64B9B6803F00C03042B2CD0A34B9B6809
:1035B00003F00C03082B21D06368B3F5803F4FD094
:1035C000B3F5A02F52D09D4B1A6822F480321A60B6
:1035D0001A6822F480221A606368002B50D0FEF72C
:1035E000F1FD0546954B1B6813F4003F14D1FEF71F
:1035F000E9FD401B6428F5D90320AAE18F4B5B68E5
:1036000013F4800FD8D08D4B1B6813F4003F03D008
:103610006368002B00F09881236813F0020F54D0E8
:10362000864B9B6813F00C0F3ED0844B9B6803F0D5
:103630000C03082B33D0E368002B67D0804B0122AA
:103640001A60FEF7BFFD05467C4B1B6813F0020FA6
:1036500053D1FEF7B7FD401B0228F5D9032078E1CE
:10366000764A136843F480331360B5E7734B1A68E6
:1036700042F480221A601A6842F480321A60ABE782
:10368000FEF7A0FD05466D4B1B6813F4003FC3D049
:10369000FEF798FD401B6428F5D9032059E1674BDC
:1036A0005B6813F4800FC6D1644B1B6813F0020FE4
:1036B00003D0E368012B40F04981604A136823F08E
:1036C000F803216943EAC1031360236813F0080F6C
:1036D00040D0636963B35B4B01221A60FEF772FD51
:1036E0000546564B5B6F13F0020F33D1FEF76AFDB0
:1036F000401B0228F5D903202BE1504A136823F020
:10370000F803216943EAC1031360DEE74C4B002252
:103710001A60FEF757FD0546484B1B6813F0020F71
:10372000D3D0FEF74FFD401B0228F5D9032010E14E
:10373000444B00221A60FEF745FD05463F4B5B6F88
:1037400013F0020F06D0FEF73DFD401B0228F5D90D
:103750000320FEE0236813F0040F78D0374B1B6C76
:1037600013F0805F33D100230193344B1A6C42F085
:1037700080521A641B6C03F080530193019B012556
:10378000314B1B6813F4807F23D0A368012B34D006
:10379000052B38D0294B1A6F22F001021A671A6FD5
:1037A00022F004021A67A368002B36D0FEF70AFD48
:1037B0000646224B1B6F13F0020F47D1FEF702FDA6
:1037C000801B41F288339842F3D90320C1E00025E1
:1037D000D6E71D4A136843F480731360FEF7F2FCCA
:1037E0000646194B1B6813F4807FCED1FEF7EAFC26
:1037F000801B0228F5D90320ABE0104A136F43F079
:1038000001031367CFE70D4B1A6F42F004021A67EA
:103810001A6F42F001021A67C5E7FEF7D3FC0646AD
:10382000064B1B6F13F0020F10D0FEF7CBFC801B72
:1038300041F288339842F3D903208AE000380240ED
:1038400000004742800E474200700040E5B9A3697E
:10385000002B7DD0464A926802F00C02082A51D013
:10386000022B17D0434B00221A60FEF7ABFC044634
:103870003F4B1B6813F0007F42D0FEF7A3FC001BF8
:103880000228F5D9032064E0394A136C23F08053F1
:103890001364DCE7374B00221A60FEF793FC054601
:1038A000334B1B6813F0007F06D0FEF78BFC401BE8
:1038B0000228F5D903204CE0E369226A1343626AC7
:1038C00043EA8213A26A5208013A43EA0243E26AD7
:1038D00043EA0263264A5360264B01221A60FEF730
:1038E00071FC0446224B1B6813F0007F06D1FEF7E3
:1038F00069FC001B0228F5D903202AE0002028E0FB
:10390000002026E0012B26D0194B5B6803F48001D0
:10391000E269914221D103F03F02216A8A421ED11D
:10392000616A47F6C0721A408A421AD103F44032E3
:10393000A16A8A4217D103F07063E26A934214D1FC
:10394000002006E001207047012002E0012000E095
:10395000002002B070BD0120FBE70120F9E7012043
:10396000F7E70120F5E70120F3E70120F1E700BFC9
:103970000038024060004742314B9B6803F00C0363
:10398000042B58D0082B58D170B52D4B5A6802F033
:103990003F025B6813F4800F2AD0294B5868C0F3AC
:1039A00088100546002643011B1A66EB0604A10198
:1039B00041EA93619801C01A61EB0401CB0043EA2C
:1039C0005073C4001946601946EB01014B0243EAEB
:1039D000D0534402204619463346FDF74FF8184BA2
:1039E0005B68C3F3014301335B00B0FBF3F070BDD0
:1039F000134B5868C0F388100546002643011B1A74
:103A000066EB0604A10141EA93619801C01A61EBDB
:103A10000401CB0043EA5073C4001946601946EB19
:103A200001018B0243EA9053840220461946334633
:103A3000FDF724F8D3E7034870470348704700BFF9
:103A40000038024000127A000024F400002800F040
:103A50009B8070B50446504B1B6803F00F038B42EC
:103A600008D2CBB24C4A1370136803F00F038B4299
:103A700040F08C80236813F0020F17D013F0040F6E
:103A800004D0464A936843F4E0539360236813F0EC
:103A9000080F04D0414A936843F4604393603F4A5F
:103AA000936823F0F003A068034393600D462368F6
:103AB00013F0010F32D06368012B21D09A1E012A26
:103AC00025D9364A126812F0020F61D033498A684C
:103AD00022F0030213438B60FEF774FB06462F4B64
:103AE0009B6803F00C036268B3EB820F16D0FEF7FD
:103AF00069FB801B41F288339842F0D9032042E0F1
:103B0000264A126812F4003FE0D101203BE0234A2C
:103B1000126812F0007FD9D1012034E01E4B1B68DF
:103B200003F00F03AB4207D9EAB21B4B1A701B68B4
:103B300003F00F03AB422DD1236813F0040F06D01E
:103B4000164A936823F4E053E1680B4393602368BB
:103B500013F0080F07D0114A936823F460432169DA
:103B600043EAC1039360FFF707FF0C4B9B68C3F365
:103B700003130B4AD35CD8400A4B18600A4B1868F1
:103B8000FEF746FA002070BD012070470120FAE7D9
:103B90000120F8E70120F6E7003C0240003802402F
:103BA000449F00087000002078000020014B186836
:103BB000704700BF7000002008B5FFF7F7FF044B07
:103BC0009B68C3F38223034AD35CD84008BD00BF7F
:103BD00000380240549F000808B5FFF7E7FF044B88
:103BE0009B68C3F34233034AD35CD84008BD00BF8F
:103BF00000380240549F00080F2303600B4B9A6863
:103C000002F0030242609A6802F0F00282609A6851
:103C100002F4E052C2609B68DB0803F4E0530361E6
:103C2000034B1B6803F00F030B6070470038024022
:103C3000003C024010B4036A046A24F001040462E8
:103C4000846924F0F00444EA021223F00A030B43CF
:103C5000826103625DF8044B704710B4036A23F07D
:103C6000100303628469036A24F4704444EA023254
:103C700023F0A00343EA0113826103625DF8044B61
:103C80007047836823F07003194341F00701816096
:103C90007047022380F83D300268936803F0070301
:103CA000062B03D0136843F001031360012380F84F
:103CB0003D30002070470268D36843F00103D360B1
:103CC0000268936803F00703062B03D0136843F0E0
:103CD00001031360002070477047704770477047BA
:103CE00010B5044603681A6912F0020F11D0DA68A1
:103CF00012F0020F0DD06FF002021A610123037758
:103D000003689B6913F0030F70D0FFF7E6FF0023F1
:103D1000237723681A6912F0040F12D0DA6812F0C0
:103D2000040F0ED06FF004021A6102232377236878
:103D30009B6913F4407F5FD02046FFF7CEFF00233E
:103D4000237723681A6912F0080F12D0DA6812F08C
:103D5000080F0ED06FF008021A610423237723683E
:103D6000DB6913F0030F4ED02046FFF7B6FF0023A8
:103D7000237723681A6912F0100F12D0DA6812F054
:103D8000100F0ED06FF010021A61082323772368FA
:103D9000DB6913F4407F3DD02046FFF79EFF0023F0
:103DA000237723681A6912F0010F03D0DA6812F042
:103DB000010F36D123681A6912F0800F03D0DA6838
:103DC00012F0800F34D123681A6912F0400F03D02B
:103DD000DA6812F0400F32D123681A6912F0200F0E
:103DE00003D0DA6812F0200F30D110BDFFF774FF56
:103DF0002046FFF773FF8AE72046FFF76DFF204656
:103E0000FFF76CFF9BE72046FFF766FF2046FFF7B2
:103E100065FFACE72046FFF75FFF2046FFF75EFF38
:103E2000BDE76FF001021A612046FDF767FAC1E7AE
:103E30006FF080021A61204600F02FF9C3E76FF09F
:103E400040021A612046FFF74AFFC5E76FF02002E3
:103E50001A61204600F020F9C7E700000368254AF0
:103E600090420ED0B0F1804F0BD0A2F57C42904230
:103E700007D002F58062904203D002F58062904242
:103E800003D123F070034A6813431A4A90421AD0B0
:103E9000B0F1804F17D0A2F57C42904213D002F5CA
:103EA000806290420FD002F5806290420BD002F502
:103EB0009A32904207D002F58062904203D002F518
:103EC0008062904203D123F44073CA68134323F005
:103ED00080034A69134303608B68C3620B68836283
:103EE000044B984202D00123436170470B6903637E
:103EF000F9E700BF00000140B0B110B5044690F8EA
:103F00003D3063B1022384F83D30214651F8040B63
:103F1000FFF7A4FF012384F83D30002010BD80F896
:103F20003C30FEF715F8EDE70120704710B48468C7
:103F300024F47F4442EA03230B43234383605DF868
:103F4000044B704790F83C30012B67D010B5044605
:103F5000012380F83C30022380F83D3002689368EA
:103F600023F47F4323F0770393600B68402B4BD0FF
:103F700013D9602B3ED025D9702B2FD0B3F5005F1D
:103F800019D1CB684A6889680068FFF7CFFF2268BB
:103F9000936843F4804393600DE0102B04D008D95C
:103FA000202B01D0302B06D119462068FFF769FE7F
:103FB00001E0002BF8D0012384F83D30002084F884
:103FC0003C0010BD502BF6D1CA6849680068FFF765
:103FD00031FE50212068FFF754FEECE7CB684A68B9
:103FE00089680068FFF7A2FF2268936843F07703AF
:103FF0009360E0E7CA6849680068FFF72EFE602119
:104000002068FFF73EFED6E7CA6849680068FFF7F8
:1040100011FE40212068FFF734FECCE702207047F4
:1040200090F83C30012B33D030B4012380F83C3081
:10403000022380F83D3003685C689D6824F07004BA
:104040000A6822435A600368124A934212D0B3F1BD
:10405000804F0FD0A2F57C4293420BD002F58062D4
:10406000934207D002F58062934203D002F59A3260
:10407000934204D125F080054A6815439D600123D1
:1040800080F83D30002380F83C30184630BC704743
:10409000022070470000014070477047EFF305832E
:1040A0007BB9EFF3108313B9EFF311831BB1094B05
:1040B0001B68022B08D0074B186840B901221A6010
:1040C00070476FF0050070476FF0050070474FF0C4
:1040D000FF307047900E002008B5EFF30583A3B9B9
:1040E000EFF3108313B9EFF311831BB10B4B1B6874
:1040F000022B0DD0094B1B68012B0CD1074B022260
:104100001A6001F017F9002008BD6FF00500FBE709
:104110006FF00500F8E74FF0FF30F5E7900E002054
:10412000F0B587B000240594EFF30584002C38D156
:10413000EFF3108313B9EFF311831BB12D4B1B6801
:10414000022B2ED068B322B31668946904B91824E0
:10415000631E372B49D8536813F0010F47D15569B7
:104160006DB14FEA950C93682BB1D7685B2F02D9DC
:10417000176907B1C5B92BB14FF0FF350EE04FF00D
:10418000800CF0E7D3688BB9136993B14FF0FF351A
:1041900004E01646002518244FF0800C012D0AD0AB
:1041A000ADB1059807B0F0BD0125F7E74FF0FF3539
:1041B000F4E70025F2E713699268029201930094F4
:1041C0000B466246314601F047F80590E9E705AA3B
:1041D000019200940B461FFA8CF2314601F076F8FA
:1041E0000128DED000230593DBE70020DAE700207A
:1041F000D8E700BF900E0020034B0360034B0B6019
:1042000080231360704700BF340E0020340C002060
:10421000034B0360034B0B604FF4807313607047D4
:1042200094120020940E002000F1080343604FF028
:10423000FF328260C3600361002303607047002384
:104240000361704743684B609A688A605160996067
:104250000861036801330360704730B40D68B5F13D
:10426000FF3F02D000F1080202E0026904E01A46B2
:1042700053681C68AC42FAD953684B6099608A60F5
:104280005160086103680133036030BC7047036903
:10429000416882688A60416851605A68824206D0EB
:1042A000002202611A68013A1A6018687047826831
:1042B0005A60F5E782B0002301930D4B1B68B3F100
:1042C000FF3F08D04FF0500383F31188BFF36F8F87
:1042D000BFF34F8FFEE74FF0500383F31188BFF316
:1042E0006F8FBFF34F8F019B002BFCD002B0704744
:1042F0007C00002008480068006880F308884FF0C0
:10430000000080F3148862B661B6BFF34F8FBFF32D
:104310006F8F00DF00BF000008ED00E0DFF80C0049
:10432000016841F4700101607047000088ED00E011
:104330004FF0807340F8043C21F0010140F8081C64
:10434000054B40F80C3C40F8202C6FF0020340F87D
:10435000243C4438704700BFB5420008000000000C
:10436000074B19680868B0E8F04F80F30988BFF37D
:104370006F8F4FF0000080F311887047AFF300801B
:10438000504F00204FF0500383F31188BFF36F8F1D
:10439000BFF34F8F0A4A136801331360012B00D01B
:1043A0007047084B1B6813F0FF0FF9D04FF0500314
:1043B00083F31188BFF36F8FBFF34F8FFEE700BF0A
:1043C0007C00002004ED00E0094B1B6843B94FF06E
:1043D000500383F31188BFF36F8FBFF34F8FFEE756
:1043E000013B034A13600BB983F31188704700BF88
:1043F0007C00002000000000000000000000000021
:10440000EFF30980BFF36F8F154B1A681EF0100F82
:1044100008BF20ED108A20E9F04F10602DE9090057
:104420004FF0500080F31188BFF34F8FBFF36F8FB1
:1044300001F006F94FF0000080F3118809BC1968FB
:104440000868B0E8F04F1EF0100F08BFB0EC108AFB
:1044500080F30988BFF36F8F704700BFAFF3008010
:10446000504F002008B54FF0500383F31188BFF37D
:104470006F8FBFF34F8F00F0B5FF18B1034B4FF0B4
:1044800080521A60002383F3118808BD04ED00E018
:10449000084A0023136008490B60084B1B68084951
:1044A000A1FB03139B09013B06490B600723136023
:1044B000704700BF10E000E018E000E0700000204E
:1044C000D34D621014E000E03A4B1A683A4B9A421E
:1044D00029D0384B1A68394B9A422DD010B582B08A
:1044E000374B1A78D2B20192FF221A701B78DBB2D6
:1044F0008DF803309DF8033003F05003314A1370F8
:10450000314B07221A609DF8033013F0800F1CD046
:104510002D4A1368013B13609DF803305B00DBB24A
:104520008DF80330EFE74FF0500383F31188BFF3AA
:104530006F8FBFF34F8FFEE74FF0500383F3118867
:10454000BFF36F8FBFF34F8FFEE71F4B1B68032B2B
:1045500008D04FF0500383F31188BFF36F8FBFF380
:104560004F8FFEE71B0203F4E063174A1360019BC1
:10457000DBB2134A1370154B1A6842F470021A60CA
:104580001A6842F070421A60FFF782FF0024104B55
:104590001C60FFF7C3FE0F4A136843F040431360EB
:1045A000FFF7A8FE01F04CF8FFF784FE204602B0AA
:1045B00010BD00BF00ED00E071C20F4170C20F419D
:1045C00000E400E0F0120020F412002020ED00E0F2
:1045D0007C00002034EF00E0EFF305830F2B0FD9B0
:1045E000104A9B5CDBB2104A12789A4208D94FF00D
:1045F000500383F31188BFF36F8FBFF34F8FFEE734
:104600000A4B1B6803F4E063094A1268934208D915
:104610004FF0500383F31188BFF36F8FBFF34F8FB9
:10462000FEE77047F0E300E0F01200200CED00E040
:10463000F4120020124A12F0070F07D0D11D21F00A
:104640000701C1F5705313440A4601E04FF470535B
:104650000C480260002141601344083B23F007032B
:104660000948036059601960991A51601360074B3B
:104670001960074B1960074B4FF000421A607047F2
:10468000FC120020084F0020F8120020044F0020E8
:10469000004F0020FC4E002010B4134A00E01A46E0
:1046A00013688342FBD35168541884420AD041688E
:1046B0004418A3420BD00360904200D010605DF814
:1046C000044B70474068014451601046EFE7074CC7
:1046D0002468A34206D05B681944416013681B68D4
:1046E0000360E9E70460E7E7084F0020F8120020C4
:1046F00070B5044600F068FE3A4B1B68BBB13A4BFC
:104700001B681C4256D1ACB1083414F0070F11D00D
:1047100024F00704083404F007035BB14FF05003A2
:1047200083F31188BFF36F8FBFF34F8FFEE7FFF75F
:1047300081FFE4E7002C3FD02C4B1B68A3424AD3F7
:104740002B4B1D6801E02B4615466A68A24202D237
:104750002A68002AF7D1234A1268AA423DD01E686F
:1047600008362A681A606B681B1B102B10D9281991
:1047700010F0070F08D04FF0500383F31188BFF3F8
:104780006F8FBFF34F8FFEE743606C60FFF784FFCE
:104790006A6816490B689B1A0B60164909688B42B8
:1047A00001D214490B60104B1B6813436B6000234C
:1047B0002B6002E0002600E0002600F09FFE16F0CD
:1047C000070F0CD04FF0500383F31188BFF36F8FA6
:1047D000BFF34F8FFEE70026EFE70026EDE73046F8
:1047E00070BD00BFF8120020FC4E0020004F0020DA
:1047F000084F0020044F002080B338B50446A0F1D4
:10480000080550F8042C164909680A4208D14FF0EF
:10481000500383F31188BFF36F8FBFF34F8FFEE711
:1048200050F8080C40B14FF0500383F31188BFF3E8
:104830006F8FBFF34F8FFEE722EA010244F8042C8A
:1048400000F0C2FD54F8041C064A13680B441360C0
:104850002846FFF721FF00F051FE38BD704700BF2A
:10486000FC4E0020004F002010B50446FFF78AFDE3
:10487000A26BE36B9A4204D00024FFF7A5FD20460B
:1048800010BD0124F9E710B50446FFF77BFDA36BCB
:1048900023B90124FFF798FD204610BD0024F9E755
:1048A00070B504461646856B026C5AB903681BB195
:1048B00000200135A56370BD806800F0EDFF002386
:1048C000A360F6E76EB94068FCF75AFA226C636899
:1048D00013446360A268934219D32368636030462F
:1048E000E7E7C068FCF74CFA226C5242E3681344D5
:1048F000E36021688B4202D2A3681A44E260022E70
:1049000001D00020D5E725B1013D0020D1E7304698
:10491000CFE70020CDE7026C72B110B5C368134435
:10492000C3608468A34201D30368C3600C46C168B6
:104930002046FCF725FA10BD704738B50546FFF74D
:1049400021FD95F8454064B203E000F08FFF013C83
:1049500064B2002C08DD6B6A33B105F1240000F06D
:10496000F1FE0028F3D0F0E7FF2385F84530FFF78C
:104970002BFDFFF707FD95F8444064B203E000F01B
:1049800075FF013C64B2002C08DD2B6933B105F1E1
:10499000100000F0D7FE0028F3D0F0E7FF2385F8E1
:1049A0004430FFF711FD38BD38B5E0B104460D467F
:1049B000FFF7E8FC2168E26B236C03FB0210A060A8
:1049C0000020A0636160013A02FB0313E360FF2350
:1049D00084F8443084F84530EDB9236963B9FFF7B2
:1049E000F3FC012038BD4FF0500383F31188BFF36F
:1049F0006F8FBFF34F8FFEE704F1100000F0A2FEAF
:104A00000028ECD0084B4FF080521A60BFF34F8F54
:104A1000BFF36F8FE3E704F11000FFF705FC04F12B
:104A20002400FFF701FCDAE704ED00E038B51D468D
:104A3000049C0B4649B92460E063236401212046AD
:104A4000FFF7B2FF84F84C5038BD2260F4E740B95C
:104A50004FF0500383F31188BFF36F8FBFF34F8F75
:104A6000FEE710B584B0044653B192B189B94FF056
:104A7000500383F31188BFF36F8FBFF34F8FFEE7AF
:104A80004FF0500383F31188BFF36F8FBFF34F8F45
:104A9000FEE76AB1502003900398502813D04FF0DE
:104AA000500383F31188BFF36F8FBFF34F8FFEE77F
:104AB0000029EFD04FF0500383F31188BFF36F8FBD
:104AC000BFF34F8FFEE720461C46039B012384F86B
:104AD000463000949DF81830FFF7A8FF204604B038
:104AE00010BD40B94FF0500383F31188BFF36F8FAF
:104AF000BFF34F8FFEE7F0B583B00646B1B101FBBF
:104B000000F017460C465030FFF7F2FD054650B155
:104B1000002380F8463000903B4600F150022146C9
:104B20003046FFF783FF284603B0F0BD0846E8E7AC
:104B3000F0B585B0019278B10446B1B1022B20D115
:104B4000E26B012A1DD04FF0500383F31188BFF3AD
:104B50006F8FBFF34F8FFEE74FF0500383F3118841
:104B6000BFF36F8FBFF34F8FFEE7026C002AE5D0D3
:104B70004FF0500383F31188BFF36F8FBFF34F8F54
:104B8000FEE71D460E4600F077FE074658B9019B2A
:104B9000002B44D04FF0500383F31188BFF36F8F85
:104BA000BFF34F8FFEE7002739E02A463146204603
:104BB000FFF776FE636A6BB938B13C4B4FF0805219
:104BC0001A60BFF34F8FBFF36F8FFFF7FDFB01201C
:104BD00005B0F0BD04F1240000F0B4FD0028F4D0CD
:104BE000324B4FF080521A60BFF34F8FBFF36F8F7D
:104BF000EBE7FFF7E9FB0020EAE702A800F0E8FD99
:104C0000012719E0002384F8443021E0002384F8D0
:104C1000453023E02046FFF790FE00F06FFCFFF7E1
:104C2000B1FBA26BE36B9A42BFD3022DBDD0019BB7
:104C3000002BDED0002FE0D0FFF7C6FB00F0C4FB56
:104C4000FFF7A0FB94F844305BB2B3F1FF3FD9D03B
:104C500094F845305BB2B3F1FF3FD7D0FFF7B4FB18
:104C600001A902A800F0C0FDC8B92046FFF7FCFD6D
:104C70000028CFD0019904F1100000F02FFD20464C
:104C8000FFF75BFE00F03AFC0028C8D1074B4FF05D
:104C900080521A60BFF34F8FBFF36F8FBFE720467C
:104CA000FFF74BFE00F02AFC002091E704ED00E046
:104CB0002DE9F84378B10446B1B1022B20D1E06B65
:104CC00001281DD04FF0500383F31188BFF36F8F7D
:104CD000BFF34F8FFEE74FF0500383F31188BFF30C
:104CE0006F8FBFF34F8FFEE7006C0028E5D04FF0C9
:104CF000500383F31188BFF36F8FBFF34F8FFEE72D
:104D00001F4690468946FFF767FCEFF311864FF088
:104D1000500383F31188BFF36F8FBFF34F8FA26BE4
:104D2000E36B9A4206D3022F04D0002086F3118849
:104D3000BDE8F88394F845506DB23A46494620469E
:104D4000FFF7AEFDB5F1FF3F05D06B1C5BB284F8F9
:104D500045300120EAE7636A0BB90120E6E704F178
:104D6000240000F0EFFC30B1B8F1000F05D00120B5
:104D7000C8F80000DAE70120D8E70120D6E70000F4
:104D8000F0B585B0019290B10446C9B10E4600F06D
:104D900073FD074600BB019B002B5CD04FF0500316
:104DA00083F31188BFF36F8FBFF34F8FFEE74FF090
:104DB000500383F31188BFF36F8FBFF34F8FFEE76C
:104DC000036C002BE2D04FF0500383F31188BFF344
:104DD0006F8FBFF34F8FFEE700273CE03146204640
:104DE000FFF799FD013DA563236923B9FFF7ECFAAD
:104DF000012005B0F0BD04F1100000F0A3FC002874
:104E0000F4D0354B4FF080521A60BFF34F8FBFF391
:104E10006F8FEBE7FFF7D8FA0020EAE702A800F06F
:104E2000D7FC012721E0002384F8443029E0002347
:104E300084F845302BE02046FFF77FFD00F05EFB55
:104E400009E02046FFF779FD00F058FB2046FFF708
:104E50001AFD00283DD1FFF795FAA56B002DBDD1B5
:104E6000019B002BD6D0002FD8D0FFF7ADFA00F071
:104E7000ABFAFFF787FA94F844305BB2B3F1FF3F27
:104E8000D1D094F845305BB2B3F1FF3FCFD0FFF7FC
:104E90009BFA01A902A800F0A7FC0028D1D1204666
:104EA000FFF7F1FC0028C6D0019904F1240000F0BE
:104EB00015FC2046FFF741FD00F020FB0028CAD179
:104EC000054B4FF080521A60BFF34F8FBFF36F8FC7
:104ED000C1E700208DE700BF04ED00E00023072BB1
:104EE0000CD8074A52F833200AB10133F7E7044AD5
:104EF00042F8331002EBC30358607047704700BF9D
:104F0000104F002070B504460D461646FFF73AFADA
:104F100094F844305BB2B3F1FF3F0DD094F84530C4
:104F20005BB2B3F1FF3F0BD0FFF74EFAA36B5BB15F
:104F30002046FFF702FD70BD002384F84430EDE702
:104F4000002384F84530EFE73246294604F1240077
:104F500000F0DCFBECE70000084B1B681B6823B982
:104F6000074B4FF0FF321A607047044B1B68DB6839
:104F7000DB685A68024B1A60704700BF544F00202C
:104F8000FC5300202DE9F04781460D4617469A460E
:104F9000089EDDF824800A9C9200A521206B00F079
:104FA00019FF236B07F18042013A03EB820727F0D8
:104FB00007077DB300230F2B06D8EA5CE11881F8C0
:104FC00034200AB10133F6E7002384F84330372E4A
:104FD00000D93726E662E66400252565201DFFF727
:104FE0002EF904F11800FFF72AF92461C6F13806FA
:104FF000A6616462656584F8585052464946384651
:10500000FFF796F92060B8F1000F01D0C8F8004012
:10501000BDE8F087002384F83430D8E738B50024A1
:10502000372C08D804EB840293000E481844FFF78D
:10503000FBF80134F4E70C4D2846FFF7F5F80B4C6C
:105040002046FFF7F1F80A48FFF7EEF80948FFF7A6
:10505000EBF80948FFF7E8F8084B1D60084B1C60A7
:1050600038BD00BF5C4F0020D4530020E85300201F
:1050700004540020305400201C540020544F0020C1
:10508000584F002010B50446FFF77CF9214A1368F9
:1050900001331360204B1B685BB1204B1B686BB95D
:1050A0001D4B1B68DA6AE36A9A4207D81A4B1C60E8
:1050B00004E0194B1C601368012B27D0184A1368B1
:1050C000013313606364E36A164A1268934201D99C
:1050D000144A136003EB83039A00211D1248104405
:1050E000FFF7B0F8FFF770F90C4B1B686BB10A4B78
:1050F0001B68DA6AE36A9A4207D20C4B4FF080527F
:105100001A60BFF34F8FBFF36F8F10BDFFF786FF9D
:10511000D4E700BFBC530020504F0020185400209B
:10512000CC530020D05300205C4F002004ED00E061
:1051300010B5044690F8593063B1012B11D0022B01
:105140000ED04FF0500383F31188BFF36F8FBFF37E
:105150004F8FFEE7006BFFF74FFB2046FFF74CFB3E
:1051600010BDFFF749FBFBE70F4B1B68D3B110B530
:10517000FFF708F90D4BDB68DC68201DFFF787F8A7
:105180000B4A1368013B1360074A1368013B136025
:10519000FFF71AF92046FFF7CBFF034B1B68002BE4
:1051A000E6D110BD704700BFC0530020305400202E
:1051B000BC53002008B5FFF7D7FF064B1B68012B37
:1051C000F9D9054B4FF080521A60BFF34F8FBFF3F0
:1051D0006F8FF0E75C4F002004ED00E070B50446EF
:1051E0000E46174B1D68174B18680430FFF74FF831
:1051F000B4F1FF3F0DD02C44124B1B685C60A542FC
:1052000010D9114B18680F4B19680431FFF725F8B6
:1052100070BD002EEFD00B4B196804310B48FFF71F
:1052200011F8F5E70A4B1868064B19680431FFF7C7
:1052300014F8084B1B68A342EAD9064B1C60E7E749
:1052400044540020504F0020584F00201C54002090
:10525000544F0020FC53002070B586B00B9D0C9C71
:1052600075B1B4B15C260496049E5C2E1AD04FF042
:10527000500383F31188BFF36F8FBFF34F8FFEE7A7
:105280004FF0500383F31188BFF36F8FBFF34F8F3D
:10529000FEE74FF0500383F31188BFF36F8FBFF326
:1052A0004F8FFEE7049E2563022584F859500025A0
:1052B0000395029405AD01950A9D0095FFF762FEE6
:1052C0002046FFF7DFFE059806B070BD2DE9F043DC
:1052D00085B007468846154699469000FFF708FABC
:1052E000F8B106465C20FFF703FA0446A8B106634E
:1052F000E4B1002384F85930039302940D9B019389
:105300000C9B00934B462A4641463846FFF73AFE2F
:105310002046FFF7B7FE012005E03046FFF76CFAA4
:10532000E6E74FF0FF3005B0BDE8F0834FF0FF3007
:10533000F9E7000010B588B000240594069407AA88
:1053400006A905A8FEF758FF059B0293069B01934B
:1053500000942346079A17491748FFF77DFF40B18D
:1053600000F04EFB012806D0B0F1FF3F18D008B086
:1053700010BD0020F6E74FF0500383F31188BFF310
:105380006F8FBFF34F8F0D4B4FF0FF321A600C4BF6
:1053900001221A600B4B00221A60FFF795F8E6E72E
:1053A0004FF0500383F31188BFF36F8FBFF34F8F1C
:1053B000FEE700BF5C9F0008B5510008FC530020C9
:1053C0001854002044540020024A1368013313602B
:1053D000704700BFC8530020014B1868704700BFDA
:1053E00044540020F8B53A4B1B68002B65D1394B6B
:1053F0001D6801351D60C5B9374B1B681B6843B17B
:105400004FF0500383F31188BFF36F8FBFF34F8FBB
:10541000FEE7314A1168314B186810601960304A54
:10542000136801331360FFF797FD2E4B1B68AB42E7
:105430000CD900242C4B1B68DB6A03EB83039A0016
:105440002A4B9B58012B3DD901243BE0002416E058
:10545000244B4FF0FF321A60ECE7224A1360E9E771
:1054600003EB83039A00394620481044FEF7EAFE16
:10547000F26A1D4B1B68DB6A9A4200D30124164B6B
:105480001B681B68002BE3D0134B1B68DB68DE68CE
:1054900073689D42E1D3371D3846FEF7F8FEB36AC4
:1054A0001BB106F11800FEF7F2FEF36A104A12680B
:1054B0009342D5D90E4A1360D2E70E4A13680133DE
:1054C000136000240C4B1B6803B101242046F8BD77
:1054D000C853002044540020544F0020584F00204F
:1054E00000540020FC530020504F00205C4F00204F
:1054F000D0530020C45300204854002038B5344B0A
:105500001B6843B94FF0500383F31188BFF36F8FCB
:10551000BFF34F8FFEE7FEF735FF2D4B1A68013AB8
:105520001A601B68002B4DD12A4B1B680BB9002455
:1055300049E00024284B1B681BB3274BDB68DC6861
:1055400004F11800FEF7A3FE251D2846FEF79FFE76
:10555000E36A224A1268934201D9204A136003EB9E
:1055600083039A0029461E481044FEF76BFEE26A48
:105570001C4B1B68DB6A9A42DCD31B4B01221A606E
:10558000D8E70CB1FFF7E8FC184B1C6874B9164B50
:105590001C68C4B1164B4FF080521A60BFF34F8F96
:1055A000BFF36F8F01240EE0013C07D0FFF71AFF15
:1055B0000028F9D00C4B01221A60F5E70B4B0022B2
:1055C0001A60E4E70024FEF7FFFE204638BD00BF66
:1055D000C8530020BC53002004540020D0530020A6
:1055E0005C4F0020504F002048540020C45300203E
:1055F00004ED00E010B5A8B104460F4B1B6843B1A1
:105600004FF0500383F31188BFF36F8FBFF34F8FB9
:10561000FEE7FFF7D9FE00212046FFF7DFFDFFF789
:105620006DFF38B9054B4FF080521A60BFF34F8FB2
:10563000BFF36F8F10BD00BFC853002004ED00E022
:10564000214B1B681BB1214B01221A6070471F4B75
:1056500000221A601E4B1B6803EB83018A001D4960
:105660008A585AB90BB1013BF6E74FF0500383F368
:105670001188BFF36F8FBFF34F8FFEE710B408465A
:105680009A00D418A10001444C6864684C601A4424
:1056900091000831084484420DD003EB830291004D
:1056A0000C4A0A445268D1680B4A1160084A1360D8
:1056B0005DF8044B7047606803EB83029100054A74
:1056C0000A445060E9E700BFC85300204854002056
:1056D000D05300205C4F0020504F002058B110B52F
:1056E0000C46094B19681831FEF7B7FD0121204619
:1056F000FFF774FD10BD4FF0500383F31188BFF323
:105700006F8FBFF34F8FFEE7504F002038B570B159
:105710000C4615460A4A11681831FEF793FD0DB183
:105720004FF0FF3429462046FFF758FD38BD4FF0B3
:10573000500383F31188BFF36F8FBFF34F8FFEE7E2
:10574000504F002038B5C368DC6824B304F1180555
:105750002846FEF79CFD184B1B682BBB251D2846D1
:10576000FEF795FDE36A154A1268934201D9134A80
:10577000136003EB83039A00294611481044FEF797
:1057800061FDE26A0F4B1B68DB6A9A4211D9012066
:105790000D4B18600EE04FF0500383F31188BFF3F8
:1057A0006F8FBFF34F8FFEE729460848FEF74AFD8B
:1057B000E7E7002038BD00BFC8530020D0530020C9
:1057C0005C4F0020504F002048540020045400201B
:1057D000034B1B680360034B1B684360704700BFAB
:1057E0000054002044540020F8B5C8B1054601B368
:1057F0000C46FEF7C7FD1B4B19686B68C81A226878
:10580000B2F1FF3F26D02F68174E3668B74201D05D
:105810008B4224D9824215D80023236001241AE048
:105820004FF0500383F31188BFF36F8FBFF34F8F97
:10583000FEE74FF0500383F31188BFF36F8FBFF380
:105840004F8FFEE75B1A134423602846FFF7C0FF23
:10585000002400E00024FEF7B7FD2046F8BD012437
:10586000F9E700BF4454002000540020014B0122FE
:105870001A60704748540020054B1B6833B1054B34
:105880001B680BB100207047022070470120704751
:1058900018540020C853002000283BD038B50446D7
:1058A0001E4A1268824208D04FF0500383F31188D9
:1058B000BFF36F8FBFF34F8FFEE7026D42B94FF01A
:1058C000500383F31188BFF36F8FBFF34F8FFEE751
:1058D000013A0265C06AE16C88421DD00AB100201D
:1058E00038BD251D2846FEF7D2FCE36CE362C3F108
:1058F0003802A2610A4A1268934201D9084A136029
:1059000003EB83039A00294606481044FEF79AFCED
:105910000120E5E7002070470020E1E7504F00201C
:10592000D05300205C4F0020064B1A6813682BB937
:105930000123036023B9D368186870470023F8E790
:10594000002070474C54002008B54160006191422E
:105950000CD8D21A83699A4201D3012008BD011DD7
:10596000094B1868FEF779FC0020F7E79A4201D24C
:10597000994206D2011D054B1868FEF76EFC002007
:10598000ECE70120EAE700BF505400204C5400200F
:1059900030B583B0FEF7F6FC114B1B681BB1FEF768
:1059A00013FD03B030BD0F4D2846FEF73DFC0E4CF5
:1059B0002046FEF739FC0D4B1D600D4B1C6000238B
:1059C00000930C4B0C4A10210A20FFF740F8044BBF
:1059D00018600028E3D00949FFF780FADFE700BF2D
:1059E00070550020F4540020085500204C5400202D
:1059F000505400202055002054540020649F00087B
:105A000010B588B0FFF7C4FF124B1B68CBB1002460
:105A10000594069407AA06A905A8FEF7F9FB059BBD
:105A20000293069B0193022300932346079A0A4997
:105A30000A48FFF711FC0A4B186010B1012008B0AA
:105A400010BD4FF0500383F31188BFF36F8FBFF386
:105A50004F8FFEE7705500206C9F0008695D0008BD
:105A600074550020C0B130B585B015460446174ABC
:105A7000106840B31A4600910195029405291CDC78
:105A8000FFF7FAFE022810D000231A4669460F4895
:105A90000068FFF74DF814E04FF0500383F31188CE
:105AA000BFF36F8FBFF34F8FFEE70023089A69465D
:105AB00006480068FFF73CF803E000236946FFF75B
:105AC000F7F805B030BD0020FBE700BF705500209F
:105AD00070B582B01B4B1B681A6862B3DB681E6826
:105AE000DC68251D2846FEF7D2FB236A204698472E
:105AF00094F8283013F0040FECD0A36933449E428D
